{
  "contractName": "KiwiSign",
  "abi": [
    {
      "inputs": [],
      "stateMutability": "nonpayable",
      "type": "constructor"
    },
    {
      "anonymous": false,
      "inputs": [
        {
          "indexed": true,
          "internalType": "address",
          "name": "owner",
          "type": "address"
        },
        {
          "indexed": true,
          "internalType": "address",
          "name": "approved",
          "type": "address"
        },
        {
          "indexed": true,
          "internalType": "uint256",
          "name": "tokenId",
          "type": "uint256"
        }
      ],
      "name": "Approval",
      "type": "event"
    },
    {
      "anonymous": false,
      "inputs": [
        {
          "indexed": true,
          "internalType": "address",
          "name": "owner",
          "type": "address"
        },
        {
          "indexed": true,
          "internalType": "address",
          "name": "operator",
          "type": "address"
        },
        {
          "indexed": false,
          "internalType": "bool",
          "name": "approved",
          "type": "bool"
        }
      ],
      "name": "ApprovalForAll",
      "type": "event"
    },
    {
      "anonymous": false,
      "inputs": [
        {
          "indexed": false,
          "internalType": "uint256",
          "name": "contract_id",
          "type": "uint256"
        },
        {
          "indexed": false,
          "internalType": "string",
          "name": "metadata",
          "type": "string"
        }
      ],
      "name": "ContractRegistered",
      "type": "event"
    },
    {
      "anonymous": false,
      "inputs": [
        {
          "indexed": false,
          "internalType": "uint256",
          "name": "contract_id",
          "type": "uint256"
        },
        {
          "indexed": false,
          "internalType": "string",
          "name": "input",
          "type": "string"
        },
        {
          "indexed": false,
          "internalType": "address",
          "name": "signer",
          "type": "address"
        }
      ],
      "name": "ContractSigned",
      "type": "event"
    },
    {
      "anonymous": false,
      "inputs": [
        {
          "indexed": true,
          "internalType": "address",
          "name": "from",
          "type": "address"
        },
        {
          "indexed": true,
          "internalType": "address",
          "name": "to",
          "type": "address"
        },
        {
          "indexed": true,
          "internalType": "uint256",
          "name": "tokenId",
          "type": "uint256"
        }
      ],
      "name": "Transfer",
      "type": "event"
    },
    {
      "inputs": [
        {
          "internalType": "address",
          "name": "to",
          "type": "address"
        },
        {
          "internalType": "uint256",
          "name": "tokenId",
          "type": "uint256"
        }
      ],
      "name": "approve",
      "outputs": [],
      "stateMutability": "nonpayable",
      "type": "function"
    },
    {
      "inputs": [
        {
          "internalType": "address",
          "name": "owner",
          "type": "address"
        }
      ],
      "name": "balanceOf",
      "outputs": [
        {
          "internalType": "uint256",
          "name": "",
          "type": "uint256"
        }
      ],
      "stateMutability": "view",
      "type": "function",
      "constant": true
    },
    {
      "inputs": [],
      "name": "contract_id",
      "outputs": [
        {
          "internalType": "uint256",
          "name": "_value",
          "type": "uint256"
        }
      ],
      "stateMutability": "view",
      "type": "function",
      "constant": true
    },
    {
      "inputs": [
        {
          "internalType": "uint256",
          "name": "tokenId",
          "type": "uint256"
        }
      ],
      "name": "getApproved",
      "outputs": [
        {
          "internalType": "address",
          "name": "",
          "type": "address"
        }
      ],
      "stateMutability": "view",
      "type": "function",
      "constant": true
    },
    {
      "inputs": [
        {
          "internalType": "address",
          "name": "owner",
          "type": "address"
        },
        {
          "internalType": "address",
          "name": "operator",
          "type": "address"
        }
      ],
      "name": "isApprovedForAll",
      "outputs": [
        {
          "internalType": "bool",
          "name": "",
          "type": "bool"
        }
      ],
      "stateMutability": "view",
      "type": "function",
      "constant": true
    },
    {
      "inputs": [],
      "name": "name",
      "outputs": [
        {
          "internalType": "string",
          "name": "",
          "type": "string"
        }
      ],
      "stateMutability": "view",
      "type": "function",
      "constant": true
    },
    {
      "inputs": [
        {
          "internalType": "uint256",
          "name": "tokenId",
          "type": "uint256"
        }
      ],
      "name": "ownerOf",
      "outputs": [
        {
          "internalType": "address",
          "name": "",
          "type": "address"
        }
      ],
      "stateMutability": "view",
      "type": "function",
      "constant": true
    },
    {
      "inputs": [
        {
          "internalType": "address",
          "name": "from",
          "type": "address"
        },
        {
          "internalType": "address",
          "name": "to",
          "type": "address"
        },
        {
          "internalType": "uint256",
          "name": "tokenId",
          "type": "uint256"
        }
      ],
      "name": "safeTransferFrom",
      "outputs": [],
      "stateMutability": "nonpayable",
      "type": "function"
    },
    {
      "inputs": [
        {
          "internalType": "address",
          "name": "from",
          "type": "address"
        },
        {
          "internalType": "address",
          "name": "to",
          "type": "address"
        },
        {
          "internalType": "uint256",
          "name": "tokenId",
          "type": "uint256"
        },
        {
          "internalType": "bytes",
          "name": "_data",
          "type": "bytes"
        }
      ],
      "name": "safeTransferFrom",
      "outputs": [],
      "stateMutability": "nonpayable",
      "type": "function"
    },
    {
      "inputs": [
        {
          "internalType": "address",
          "name": "operator",
          "type": "address"
        },
        {
          "internalType": "bool",
          "name": "approved",
          "type": "bool"
        }
      ],
      "name": "setApprovalForAll",
      "outputs": [],
      "stateMutability": "nonpayable",
      "type": "function"
    },
    {
      "inputs": [
        {
          "internalType": "bytes4",
          "name": "interfaceId",
          "type": "bytes4"
        }
      ],
      "name": "supportsInterface",
      "outputs": [
        {
          "internalType": "bool",
          "name": "",
          "type": "bool"
        }
      ],
      "stateMutability": "view",
      "type": "function",
      "constant": true
    },
    {
      "inputs": [],
      "name": "symbol",
      "outputs": [
        {
          "internalType": "string",
          "name": "",
          "type": "string"
        }
      ],
      "stateMutability": "view",
      "type": "function",
      "constant": true
    },
    {
      "inputs": [
        {
          "internalType": "uint256",
          "name": "tokenId",
          "type": "uint256"
        }
      ],
      "name": "tokenURI",
      "outputs": [
        {
          "internalType": "string",
          "name": "",
          "type": "string"
        }
      ],
      "stateMutability": "view",
      "type": "function",
      "constant": true
    },
    {
      "inputs": [
        {
          "internalType": "address",
          "name": "from",
          "type": "address"
        },
        {
          "internalType": "address",
          "name": "to",
          "type": "address"
        },
        {
          "internalType": "uint256",
          "name": "tokenId",
          "type": "uint256"
        }
      ],
      "name": "transferFrom",
      "outputs": [],
      "stateMutability": "nonpayable",
      "type": "function"
    },
    {
      "inputs": [],
      "name": "getCurrentContractId",
      "outputs": [
        {
          "internalType": "uint256",
          "name": "",
          "type": "uint256"
        }
      ],
      "stateMutability": "view",
      "type": "function",
      "constant": true
    },
    {
      "inputs": [
        {
          "internalType": "string",
          "name": "metadata",
          "type": "string"
        },
        {
          "internalType": "address",
          "name": "public_key",
          "type": "address"
        }
      ],
      "name": "createContract",
      "outputs": [
        {
          "internalType": "uint256",
          "name": "",
          "type": "uint256"
        }
      ],
      "stateMutability": "nonpayable",
      "type": "function"
    },
    {
      "inputs": [
        {
          "internalType": "bytes",
          "name": "signature",
          "type": "bytes"
        },
        {
          "internalType": "uint256",
          "name": "id",
          "type": "uint256"
        },
        {
          "internalType": "string",
          "name": "input_cid",
          "type": "string"
        }
      ],
      "name": "verifySignature",
      "outputs": [
        {
          "internalType": "bool",
          "name": "",
          "type": "bool"
        }
      ],
      "stateMutability": "nonpayable",
      "type": "function"
    },
    {
      "inputs": [
        {
          "internalType": "uint256",
          "name": "id",
          "type": "uint256"
        }
      ],
      "name": "getMetadataFromContractId",
      "outputs": [
        {
          "internalType": "string",
          "name": "",
          "type": "string"
        }
      ],
      "stateMutability": "view",
      "type": "function",
      "constant": true
    },
    {
      "inputs": [
        {
          "internalType": "address",
          "name": "signer",
          "type": "address"
        },
        {
          "internalType": "uint256",
          "name": "id",
          "type": "uint256"
        }
      ],
      "name": "createSignatureHash",
      "outputs": [
        {
          "internalType": "bytes32",
          "name": "",
          "type": "bytes32"
        }
      ],
      "stateMutability": "pure",
      "type": "function",
      "constant": true
    },
    {
      "inputs": [
        {
          "internalType": "bytes32",
          "name": "_bytes32",
          "type": "bytes32"
        }
      ],
      "name": "bytes32ToString",
      "outputs": [
        {
          "internalType": "string",
          "name": "",
          "type": "string"
        }
      ],
      "stateMutability": "pure",
      "type": "function",
      "constant": true
    },
    {
      "inputs": [
        {
          "internalType": "bytes32",
          "name": "_hash",
          "type": "bytes32"
        },
        {
          "internalType": "bytes",
          "name": "_signature",
          "type": "bytes"
        }
      ],
      "name": "getSigner",
      "outputs": [
        {
          "internalType": "address",
          "name": "",
          "type": "address"
        }
      ],
      "stateMutability": "pure",
      "type": "function",
      "constant": true
    }
  ],
  "bytecode": "0x60806040523480156200001157600080fd5b506040518060400160405280600d81526020017f4b6977695369676e506f415630000000000000000000000000000000000000008152506040518060400160405280600781526020017f4b53506f41563000000000000000000000000000000000000000000000000000815250816000908051906020019062000096929190620000b8565b508060019080519060200190620000af929190620000b8565b505050620001cd565b828054620000c69062000168565b90600052602060002090601f016020900481019282620000ea576000855562000136565b82601f106200010557805160ff191683800117855562000136565b8280016001018555821562000136579182015b828111156200013557825182559160200191906001019062000118565b5b50905062000145919062000149565b5090565b5b80821115620001645760008160009055506001016200014a565b5090565b600060028204905060018216806200018157607f821691505b602082108114156200019857620001976200019e565b5b50919050565b7f4e487b7100000000000000000000000000000000000000000000000000000000600052602260045260246000fd5b613c3c80620001dd6000396000f3fe608060405234801561001057600080fd5b50600436106101375760003560e01c80639201de55116100b8578063c87b56dd1161007c578063c87b56dd14610360578063cfef316014610390578063dcd05962146103c0578063e985e9c5146103f0578063f7b2ec0d14610420578063ff155be01461045057610137565b80639201de55146102bc57806395d89b41146102ec57806399c4b24c1461030a578063a22cb46514610328578063b88d4fde1461034457610137565b80633ad32d16116100ff5780633ad32d16146101f25780633bd94a721461021057806342842e0e146102405780636352211e1461025c57806370a082311461028c57610137565b806301ffc9a71461013c57806306fdde031461016c578063081812fc1461018a578063095ea7b3146101ba57806323b872dd146101d6575b600080fd5b61015660048036038101906101519190612801565b610480565b604051610163919061335c565b60405180910390f35b610174610562565b6040516101819190613409565b60405180910390f35b6101a4600480360381019061019f9190612975565b6105f4565b6040516101b191906132cc565b60405180910390f35b6101d460048036038101906101cf919061271f565b610679565b005b6101f060048036038101906101eb9190612619565b610791565b005b6101fa6107f1565b604051610207919061368b565b60405180910390f35b61022a600480360381019061022591906128dc565b6107fd565b604051610237919061368b565b60405180910390f35b61025a60048036038101906102559190612619565b61092d565b005b61027660048036038101906102719190612975565b61094d565b60405161028391906132cc565b60405180910390f35b6102a660048036038101906102a1919061258b565b6109ff565b6040516102b3919061368b565b60405180910390f35b6102d660048036038101906102d1919061275b565b610ab7565b6040516102e39190613409565b60405180910390f35b6102f4610d10565b6040516103019190613409565b60405180910390f35b610312610da2565b60405161031f919061368b565b60405180910390f35b610342600480360381019061033d91906126e3565b610db3565b005b61035e60048036038101906103599190612668565b610f34565b005b61037a60048036038101906103759190612975565b610f96565b6040516103879190613409565b60405180910390f35b6103aa60048036038101906103a59190612975565b6110e8565b6040516103b79190613409565b60405180910390f35b6103da60048036038101906103d5919061271f565b61118d565b6040516103e79190613377565b60405180910390f35b61040a600480360381019061040591906125dd565b6111c0565b604051610417919061335c565b60405180910390f35b61043a600480360381019061043591906127ad565b611254565b60405161044791906132cc565b60405180910390f35b61046a60048036038101906104659190612853565b61134d565b604051610477919061335c565b60405180910390f35b60007f80ac58cd000000000000000000000000000000000000000000000000000000007bffffffffffffffffffffffffffffffffffffffffffffffffffffffff1916827bffffffffffffffffffffffffffffffffffffffffffffffffffffffff1916148061054b57507f5b5e139f000000000000000000000000000000000000000000000000000000007bffffffffffffffffffffffffffffffffffffffffffffffffffffffff1916827bffffffffffffffffffffffffffffffffffffffffffffffffffffffff1916145b8061055b575061055a826116a9565b5b9050919050565b606060008054610571906139ab565b80601f016020809104026020016040519081016040528092919081815260200182805461059d906139ab565b80156105ea5780601f106105bf576101008083540402835291602001916105ea565b820191906000526020600020905b8154815290600101906020018083116105cd57829003601f168201915b5050505050905090565b60006105ff82611713565b61063e576040517f08c379a0000000000000000000000000000000000000000000000000000000008152600401610635906135cb565b60405180910390fd5b6004600083815260200190815260200160002060009054906101000a900473ffffffffffffffffffffffffffffffffffffffff169050919050565b60006106848261094d565b90508073ffffffffffffffffffffffffffffffffffffffff168373ffffffffffffffffffffffffffffffffffffffff1614156106f5576040517f08c379a00000000000000000000000000000000000000000000000000000000081526004016106ec9061362b565b60405180910390fd5b8073ffffffffffffffffffffffffffffffffffffffff1661071461177f565b73ffffffffffffffffffffffffffffffffffffffff16148061074357506107428161073d61177f565b6111c0565b5b610782576040517f08c379a0000000000000000000000000000000000000000000000000000000008152600401610779906134eb565b60405180910390fd5b61078c8383611787565b505050565b6107a261079c61177f565b82611840565b6107e1576040517f08c379a00000000000000000000000000000000000000000000000000000000081526004016107d89061366b565b60405180910390fd5b6107ec83838361191e565b505050565b60078060000154905081565b6000602e8484905014610845576040517f08c379a000000000000000000000000000000000000000000000000000000000815260040161083c9061364b565b60405180910390fd5b61084f6007611b7a565b83836009600061085f6007611b90565b8152602001908152602001600020919061087a929190612256565b5081600a600061088a6007611b90565b815260200190815260200160002060006101000a81548173ffffffffffffffffffffffffffffffffffffffff021916908373ffffffffffffffffffffffffffffffffffffffff1602179055507f203a782f9a02098919af0317ae0234cd3338c0cae341a50f809fbb1f86cea2cd6109016007611b90565b8585604051610912939291906136a6565b60405180910390a16109246007611b90565b90509392505050565b61094883838360405180602001604052806000815250610f34565b505050565b6000806002600084815260200190815260200160002060009054906101000a900473ffffffffffffffffffffffffffffffffffffffff169050600073ffffffffffffffffffffffffffffffffffffffff168173ffffffffffffffffffffffffffffffffffffffff1614156109f6576040517f08c379a00000000000000000000000000000000000000000000000000000000081526004016109ed9061354b565b60405180910390fd5b80915050919050565b60008073ffffffffffffffffffffffffffffffffffffffff168273ffffffffffffffffffffffffffffffffffffffff161415610a70576040517f08c379a0000000000000000000000000000000000000000000000000000000008152600401610a679061352b565b60405180910390fd5b600360008373ffffffffffffffffffffffffffffffffffffffff1673ffffffffffffffffffffffffffffffffffffffff168152602001908152602001600020549050919050565b606060005b60208160ff16108015610b345750600060f81b838260ff1660208110610b0b577f4e487b7100000000000000000000000000000000000000000000000000000000600052603260045260246000fd5b1a60f81b7effffffffffffffffffffffffffffffffffffffffffffffffffffffffffffff191614155b15610b4c578080610b4490613a26565b915050610abc565b60008160ff1667ffffffffffffffff811115610b91577f4e487b7100000000000000000000000000000000000000000000000000000000600052604160045260246000fd5b6040519080825280601f01601f191660200182016040528015610bc35781602001600182028036833780820191505090505b509050600091505b60208260ff16108015610c435750600060f81b848360ff1660208110610c1a577f4e487b7100000000000000000000000000000000000000000000000000000000600052603260045260246000fd5b1a60f81b7effffffffffffffffffffffffffffffffffffffffffffffffffffffffffffff191614155b15610d0657838260ff1660208110610c84577f4e487b7100000000000000000000000000000000000000000000000000000000600052603260045260246000fd5b1a60f81b818360ff1681518110610cc4577f4e487b7100000000000000000000000000000000000000000000000000000000600052603260045260246000fd5b60200101907effffffffffffffffffffffffffffffffffffffffffffffffffffffffffffff1916908160001a9053508180610cfe90613a26565b925050610bcb565b8092505050919050565b606060018054610d1f906139ab565b80601f0160208091040260200160405190810160405280929190818152602001828054610d4b906139ab565b8015610d985780601f10610d6d57610100808354040283529160200191610d98565b820191906000526020600020905b815481529060010190602001808311610d7b57829003601f168201915b5050505050905090565b6000610dae6007611b90565b905090565b610dbb61177f565b73ffffffffffffffffffffffffffffffffffffffff168273ffffffffffffffffffffffffffffffffffffffff161415610e29576040517f08c379a0000000000000000000000000000000000000000000000000000000008152600401610e209061348b565b60405180910390fd5b8060056000610e3661177f565b73ffffffffffffffffffffffffffffffffffffffff1673ffffffffffffffffffffffffffffffffffffffff16815260200190815260200160002060008473ffffffffffffffffffffffffffffffffffffffff1673ffffffffffffffffffffffffffffffffffffffff16815260200190815260200160002060006101000a81548160ff0219169083151502179055508173ffffffffffffffffffffffffffffffffffffffff16610ee361177f565b73ffffffffffffffffffffffffffffffffffffffff167f17307eab39ab6107e8899845ad3d59bd9653f200f220920489ca2b5937696c3183604051610f28919061335c565b60405180910390a35050565b610f45610f3f61177f565b83611840565b610f84576040517f08c379a0000000000000000000000000000000000000000000000000000000008152600401610f7b9061366b565b60405180910390fd5b610f9084848484611b9e565b50505050565b6060610fa182611713565b610fe0576040517f08c379a0000000000000000000000000000000000000000000000000000000008152600401610fd7906135ab565b60405180910390fd5b6000600660008481526020019081526020016000208054611000906139ab565b80601f016020809104026020016040519081016040528092919081815260200182805461102c906139ab565b80156110795780601f1061104e57610100808354040283529160200191611079565b820191906000526020600020905b81548152906001019060200180831161105c57829003601f168201915b50505050509050600061108a611bfa565b90506000815114156110a05781925050506110e3565b6000825111156110d55780826040516020016110bd929190613282565b604051602081830303815290604052925050506110e3565b6110de84611c11565b925050505b919050565b6060600960008381526020019081526020016000208054611108906139ab565b80601f0160208091040260200160405190810160405280929190818152602001828054611134906139ab565b80156111815780601f1061115657610100808354040283529160200191611181565b820191906000526020600020905b81548152906001019060200180831161116457829003601f168201915b50505050509050919050565b600082826040516020016111a2929190613219565b60405160208183030381529060405280519060200120905092915050565b6000600560008473ffffffffffffffffffffffffffffffffffffffff1673ffffffffffffffffffffffffffffffffffffffff16815260200190815260200160002060008373ffffffffffffffffffffffffffffffffffffffff1673ffffffffffffffffffffffffffffffffffffffff16815260200190815260200160002060009054906101000a900460ff16905092915050565b600080600080604185511461126f5760009350505050611347565b6020850151925060408501519150606085015160001a9050601b8160ff1610156112a357601b816112a09190613842565b90505b601b8160ff16141580156112bb5750601c8160ff1614155b156112cc5760009350505050611347565b6001866040516020016112df91906132a6565b604051602081830303815290604052805190602001208285856040516000815260200160405260405161131594939291906133c4565b6020604051602081039080840390855afa158015611337573d6000803e3d6000fd5b5050506020604051035193505050505b92915050565b6000602e8383905014611395576040517f08c379a000000000000000000000000000000000000000000000000000000000815260040161138c9061350b565b60405180910390fd5b60003073ffffffffffffffffffffffffffffffffffffffff1663f7b2ec0d3073ffffffffffffffffffffffffffffffffffffffff1663dcd0596233896040518363ffffffff1660e01b81526004016113ee929190613333565b60206040518083038186803b15801561140657600080fd5b505afa15801561141a573d6000803e3d6000fd5b505050506040513d601f19601f8201168201806040525081019061143e9190612784565b89896040518463ffffffff1660e01b815260040161145e93929190613392565b60206040518083038186803b15801561147657600080fd5b505afa15801561148a573d6000803e3d6000fd5b505050506040513d601f19601f820116820180604052508101906114ae91906125b4565b9050600a600086815260200190815260200160002060009054906101000a900473ffffffffffffffffffffffffffffffffffffffff1673ffffffffffffffffffffffffffffffffffffffff168173ffffffffffffffffffffffffffffffffffffffff1614611551576040517f08c379a0000000000000000000000000000000000000000000000000000000008152600401611548906134ab565b60405180910390fd5b61155b6008611b7a565b6000336115686008611b90565b4260405160200161157b93929190613245565b6040516020818303038152906040528051906020012060001c90506115a03382611cb8565b61165d813073ffffffffffffffffffffffffffffffffffffffff16639201de55896040516020016115d1919061368b565b604051602081830303815290604052805190602001206040518263ffffffff1660e01b81526004016116039190613377565b60006040518083038186803b15801561161b57600080fd5b505afa15801561162f573d6000803e3d6000fd5b505050506040513d6000823e3d601f19601f820116820180604052508101906116589190612934565b611e86565b7f332dfc75486dd4949fdf57b9743b019682bf51cadfb237b4e224ff101c8023bb8686863360405161169294939291906136d8565b60405180910390a160019250505095945050505050565b60007f01ffc9a7000000000000000000000000000000000000000000000000000000007bffffffffffffffffffffffffffffffffffffffffffffffffffffffff1916827bffffffffffffffffffffffffffffffffffffffffffffffffffffffff1916149050919050565b60008073ffffffffffffffffffffffffffffffffffffffff166002600084815260200190815260200160002060009054906101000a900473ffffffffffffffffffffffffffffffffffffffff1673ffffffffffffffffffffffffffffffffffffffff1614159050919050565b600033905090565b816004600083815260200190815260200160002060006101000a81548173ffffffffffffffffffffffffffffffffffffffff021916908373ffffffffffffffffffffffffffffffffffffffff160217905550808273ffffffffffffffffffffffffffffffffffffffff166117fa8361094d565b73ffffffffffffffffffffffffffffffffffffffff167f8c5be1e5ebec7d5bd14f71427d1e84f3dd0314c0f7b2291e5b200ac8c7c3b92560405160405180910390a45050565b600061184b82611713565b61188a576040517f08c379a0000000000000000000000000000000000000000000000000000000008152600401611881906134cb565b60405180910390fd5b60006118958361094d565b90508073ffffffffffffffffffffffffffffffffffffffff168473ffffffffffffffffffffffffffffffffffffffff16148061190457508373ffffffffffffffffffffffffffffffffffffffff166118ec846105f4565b73ffffffffffffffffffffffffffffffffffffffff16145b80611915575061191481856111c0565b5b91505092915050565b8273ffffffffffffffffffffffffffffffffffffffff1661193e8261094d565b73ffffffffffffffffffffffffffffffffffffffff1614611994576040517f08c379a000000000000000000000000000000000000000000000000000000000815260040161198b906135eb565b60405180910390fd5b600073ffffffffffffffffffffffffffffffffffffffff168273ffffffffffffffffffffffffffffffffffffffff161415611a04576040517f08c379a00000000000000000000000000000000000000000000000000000000081526004016119fb9061346b565b60405180910390fd5b611a0f838383611efa565b611a1a600082611787565b6001600360008573ffffffffffffffffffffffffffffffffffffffff1673ffffffffffffffffffffffffffffffffffffffff1681526020019081526020016000206000828254611a6a91906138aa565b925050819055506001600360008473ffffffffffffffffffffffffffffffffffffffff1673ffffffffffffffffffffffffffffffffffffffff1681526020019081526020016000206000828254611ac191906137ec565b92505081905550816002600083815260200190815260200160002060006101000a81548173ffffffffffffffffffffffffffffffffffffffff021916908373ffffffffffffffffffffffffffffffffffffffff160217905550808273ffffffffffffffffffffffffffffffffffffffff168473ffffffffffffffffffffffffffffffffffffffff167fddf252ad1be2c89b69c2b068fc378daa952ba7f163c4a11628f55a4df523b3ef60405160405180910390a4505050565b6001816000016000828254019250508190555050565b600081600001549050919050565b611ba984848461191e565b611bb584848484611eff565b611bf4576040517f08c379a0000000000000000000000000000000000000000000000000000000008152600401611beb9061342b565b60405180910390fd5b50505050565b606060405180602001604052806000815250905090565b6060611c1c82611713565b611c5b576040517f08c379a0000000000000000000000000000000000000000000000000000000008152600401611c529061360b565b60405180910390fd5b6000611c65611bfa565b90506000815111611c855760405180602001604052806000815250611cb0565b80611c8f84612096565b604051602001611ca0929190613282565b6040516020818303038152906040525b915050919050565b600073ffffffffffffffffffffffffffffffffffffffff168273ffffffffffffffffffffffffffffffffffffffff161415611d28576040517f08c379a0000000000000000000000000000000000000000000000000000000008152600401611d1f9061358b565b60405180910390fd5b611d3181611713565b15611d71576040517f08c379a0000000000000000000000000000000000000000000000000000000008152600401611d689061344b565b60405180910390fd5b611d7d60008383611efa565b6001600360008473ffffffffffffffffffffffffffffffffffffffff1673ffffffffffffffffffffffffffffffffffffffff1681526020019081526020016000206000828254611dcd91906137ec565b92505081905550816002600083815260200190815260200160002060006101000a81548173ffffffffffffffffffffffffffffffffffffffff021916908373ffffffffffffffffffffffffffffffffffffffff160217905550808273ffffffffffffffffffffffffffffffffffffffff16600073ffffffffffffffffffffffffffffffffffffffff167fddf252ad1be2c89b69c2b068fc378daa952ba7f163c4a11628f55a4df523b3ef60405160405180910390a45050565b611e8f82611713565b611ece576040517f08c379a0000000000000000000000000000000000000000000000000000000008152600401611ec59061356b565b60405180910390fd5b80600660008481526020019081526020016000209080519060200190611ef59291906122dc565b505050565b505050565b6000611f208473ffffffffffffffffffffffffffffffffffffffff16612243565b15612089578373ffffffffffffffffffffffffffffffffffffffff1663150b7a02611f4961177f565b8786866040518563ffffffff1660e01b8152600401611f6b94939291906132e7565b602060405180830381600087803b158015611f8557600080fd5b505af1925050508015611fb657506040513d601f19601f82011682018060405250810190611fb3919061282a565b60015b612039573d8060008114611fe6576040519150601f19603f3d011682016040523d82523d6000602084013e611feb565b606091505b50600081511415612031576040517f08c379a00000000000000000000000000000000000000000000000000000000081526004016120289061342b565b60405180910390fd5b805181602001fd5b63150b7a0260e01b7bffffffffffffffffffffffffffffffffffffffffffffffffffffffff1916817bffffffffffffffffffffffffffffffffffffffffffffffffffffffff19161491505061208e565b600190505b949350505050565b606060008214156120de576040518060400160405280600181526020017f3000000000000000000000000000000000000000000000000000000000000000815250905061223e565b600082905060005b600082146121105780806120f9906139dd565b915050600a826121099190613879565b91506120e6565b60008167ffffffffffffffff811115612152577f4e487b7100000000000000000000000000000000000000000000000000000000600052604160045260246000fd5b6040519080825280601f01601f1916602001820160405280156121845781602001600182028036833780820191505090505b5090505b600085146122375760018261219d91906138aa565b9150600a856121ac9190613a88565b60306121b891906137ec565b60f81b8183815181106121f4577f4e487b7100000000000000000000000000000000000000000000000000000000600052603260045260246000fd5b60200101907effffffffffffffffffffffffffffffffffffffffffffffffffffffffffffff1916908160001a905350600a856122309190613879565b9450612188565b8093505050505b919050565b600080823b905060008111915050919050565b828054612262906139ab565b90600052602060002090601f01602090048101928261228457600085556122cb565b82601f1061229d57803560ff19168380011785556122cb565b828001600101855582156122cb579182015b828111156122ca5782358255916020019190600101906122af565b5b5090506122d89190612362565b5090565b8280546122e8906139ab565b90600052602060002090601f01602090048101928261230a5760008555612351565b82601f1061232357805160ff1916838001178555612351565b82800160010185558215612351579182015b82811115612350578251825591602001919060010190612335565b5b50905061235e9190612362565b5090565b5b8082111561237b576000816000905550600101612363565b5090565b600061239261238d84613749565b613718565b9050828152602081018484840111156123aa57600080fd5b6123b5848285613969565b509392505050565b60006123d06123cb84613779565b613718565b9050828152602081018484840111156123e857600080fd5b6123f3848285613978565b509392505050565b60008135905061240a81613b93565b92915050565b60008151905061241f81613b93565b92915050565b60008135905061243481613baa565b92915050565b60008135905061244981613bc1565b92915050565b60008151905061245e81613bc1565b92915050565b60008135905061247381613bd8565b92915050565b60008151905061248881613bd8565b92915050565b60008083601f8401126124a057600080fd5b8235905067ffffffffffffffff8111156124b957600080fd5b6020830191508360018202830111156124d157600080fd5b9250929050565b600082601f8301126124e957600080fd5b81356124f984826020860161237f565b91505092915050565b60008083601f84011261251457600080fd5b8235905067ffffffffffffffff81111561252d57600080fd5b60208301915083600182028301111561254557600080fd5b9250929050565b600082601f83011261255d57600080fd5b815161256d8482602086016123bd565b91505092915050565b60008135905061258581613bef565b92915050565b60006020828403121561259d57600080fd5b60006125ab848285016123fb565b91505092915050565b6000602082840312156125c657600080fd5b60006125d484828501612410565b91505092915050565b600080604083850312156125f057600080fd5b60006125fe858286016123fb565b925050602061260f858286016123fb565b9150509250929050565b60008060006060848603121561262e57600080fd5b600061263c868287016123fb565b935050602061264d868287016123fb565b925050604061265e86828701612576565b9150509250925092565b6000806000806080858703121561267e57600080fd5b600061268c878288016123fb565b945050602061269d878288016123fb565b93505060406126ae87828801612576565b925050606085013567ffffffffffffffff8111156126cb57600080fd5b6126d7878288016124d8565b91505092959194509250565b600080604083850312156126f657600080fd5b6000612704858286016123fb565b925050602061271585828601612425565b9150509250929050565b6000806040838503121561273257600080fd5b6000612740858286016123fb565b925050602061275185828601612576565b9150509250929050565b60006020828403121561276d57600080fd5b600061277b8482850161243a565b91505092915050565b60006020828403121561279657600080fd5b60006127a48482850161244f565b91505092915050565b600080604083850312156127c057600080fd5b60006127ce8582860161243a565b925050602083013567ffffffffffffffff8111156127eb57600080fd5b6127f7858286016124d8565b9150509250929050565b60006020828403121561281357600080fd5b600061282184828501612464565b91505092915050565b60006020828403121561283c57600080fd5b600061284a84828501612479565b91505092915050565b60008060008060006060868803121561286b57600080fd5b600086013567ffffffffffffffff81111561288557600080fd5b6128918882890161248e565b955095505060206128a488828901612576565b935050604086013567ffffffffffffffff8111156128c157600080fd5b6128cd88828901612502565b92509250509295509295909350565b6000806000604084860312156128f157600080fd5b600084013567ffffffffffffffff81111561290b57600080fd5b61291786828701612502565b9350935050602061292a868287016123fb565b9150509250925092565b60006020828403121561294657600080fd5b600082015167ffffffffffffffff81111561296057600080fd5b61296c8482850161254c565b91505092915050565b60006020828403121561298757600080fd5b600061299584828501612576565b91505092915050565b6129a7816138de565b82525050565b6129be6129b9826138de565b613a50565b82525050565b6129cd816138f0565b82525050565b6129dc816138fc565b82525050565b6129f36129ee826138fc565b613a62565b82525050565b6000612a0583856137bf565b9350612a12838584613969565b612a1b83613b75565b840190509392505050565b6000612a31826137a9565b612a3b81856137bf565b9350612a4b818560208601613978565b612a5481613b75565b840191505092915050565b6000612a6b83856137d0565b9350612a78838584613969565b612a8183613b75565b840190509392505050565b6000612a97826137b4565b612aa181856137d0565b9350612ab1818560208601613978565b612aba81613b75565b840191505092915050565b6000612ad0826137b4565b612ada81856137e1565b9350612aea818560208601613978565b80840191505092915050565b6000612b03601c836137e1565b91507f19457468657265756d205369676e6564204d6573736167653a0a3332000000006000830152601c82019050919050565b6000612b436032836137d0565b91507f4552433732313a207472616e7366657220746f206e6f6e20455243373231526560008301527f63656976657220696d706c656d656e74657200000000000000000000000000006020830152604082019050919050565b6000612ba9601c836137d0565b91507f4552433732313a20746f6b656e20616c7265616479206d696e746564000000006000830152602082019050919050565b6000612be96024836137d0565b91507f4552433732313a207472616e7366657220746f20746865207a65726f2061646460008301527f72657373000000000000000000000000000000000000000000000000000000006020830152604082019050919050565b6000612c4f6019836137d0565b91507f4552433732313a20617070726f766520746f2063616c6c6572000000000000006000830152602082019050919050565b6000612c8f601d836137d0565b91507f7369676e617475726520766572696669636174696f6e206661696c65640000006000830152602082019050919050565b6000612ccf602c836137d0565b91507f4552433732313a206f70657261746f7220717565727920666f72206e6f6e657860008301527f697374656e7420746f6b656e00000000000000000000000000000000000000006020830152604082019050919050565b6000612d356038836137d0565b91507f4552433732313a20617070726f76652063616c6c6572206973206e6f74206f7760008301527f6e6572206e6f7220617070726f76656420666f7220616c6c00000000000000006020830152604082019050919050565b6000612d9b6011836137d0565b91507f696e76616c696420696e707574204349440000000000000000000000000000006000830152602082019050919050565b6000612ddb602a836137d0565b91507f4552433732313a2062616c616e636520717565727920666f7220746865207a6560008301527f726f2061646472657373000000000000000000000000000000000000000000006020830152604082019050919050565b6000612e416029836137d0565b91507f4552433732313a206f776e657220717565727920666f72206e6f6e657869737460008301527f656e7420746f6b656e00000000000000000000000000000000000000000000006020830152604082019050919050565b6000612ea7602e836137d0565b91507f45524337323155524953746f726167653a2055524920736574206f66206e6f6e60008301527f6578697374656e7420746f6b656e0000000000000000000000000000000000006020830152604082019050919050565b6000612f0d6020836137d0565b91507f4552433732313a206d696e7420746f20746865207a65726f20616464726573736000830152602082019050919050565b6000612f4d6031836137d0565b91507f45524337323155524953746f726167653a2055524920717565727920666f722060008301527f6e6f6e6578697374656e7420746f6b656e0000000000000000000000000000006020830152604082019050919050565b6000612fb3602c836137d0565b91507f4552433732313a20617070726f76656420717565727920666f72206e6f6e657860008301527f697374656e7420746f6b656e00000000000000000000000000000000000000006020830152604082019050919050565b60006130196029836137d0565b91507f4552433732313a207472616e73666572206f6620746f6b656e2074686174206960008301527f73206e6f74206f776e00000000000000000000000000000000000000000000006020830152604082019050919050565b600061307f602f836137d0565b91507f4552433732314d657461646174613a2055524920717565727920666f72206e6f60008301527f6e6578697374656e7420746f6b656e00000000000000000000000000000000006020830152604082019050919050565b60006130e56021836137d0565b91507f4552433732313a20617070726f76616c20746f2063757272656e74206f776e6560008301527f72000000000000000000000000000000000000000000000000000000000000006020830152604082019050919050565b600061314b6014836137d0565b91507f696e76616c6964206d65746164617461204349440000000000000000000000006000830152602082019050919050565b600061318b6031836137d0565b91507f4552433732313a207472616e736665722063616c6c6572206973206e6f74206f60008301527f776e6572206e6f7220617070726f7665640000000000000000000000000000006020830152604082019050919050565b6131ed81613952565b82525050565b6132046131ff82613952565b613a7e565b82525050565b6132138161395c565b82525050565b600061322582856129ad565b60148201915061323582846131f3565b6020820191508190509392505050565b600061325182866129ad565b60148201915061326182856131f3565b60208201915061327182846131f3565b602082019150819050949350505050565b600061328e8285612ac5565b915061329a8284612ac5565b91508190509392505050565b60006132b182612af6565b91506132bd82846129e2565b60208201915081905092915050565b60006020820190506132e1600083018461299e565b92915050565b60006080820190506132fc600083018761299e565b613309602083018661299e565b61331660408301856131e4565b81810360608301526133288184612a26565b905095945050505050565b6000604082019050613348600083018561299e565b61335560208301846131e4565b9392505050565b600060208201905061337160008301846129c4565b92915050565b600060208201905061338c60008301846129d3565b92915050565b60006040820190506133a760008301866129d3565b81810360208301526133ba8184866129f9565b9050949350505050565b60006080820190506133d960008301876129d3565b6133e6602083018661320a565b6133f360408301856129d3565b61340060608301846129d3565b95945050505050565b600060208201905081810360008301526134238184612a8c565b905092915050565b6000602082019050818103600083015261344481612b36565b9050919050565b6000602082019050818103600083015261346481612b9c565b9050919050565b6000602082019050818103600083015261348481612bdc565b9050919050565b600060208201905081810360008301526134a481612c42565b9050919050565b600060208201905081810360008301526134c481612c82565b9050919050565b600060208201905081810360008301526134e481612cc2565b9050919050565b6000602082019050818103600083015261350481612d28565b9050919050565b6000602082019050818103600083015261352481612d8e565b9050919050565b6000602082019050818103600083015261354481612dce565b9050919050565b6000602082019050818103600083015261356481612e34565b9050919050565b6000602082019050818103600083015261358481612e9a565b9050919050565b600060208201905081810360008301526135a481612f00565b9050919050565b600060208201905081810360008301526135c481612f40565b9050919050565b600060208201905081810360008301526135e481612fa6565b9050919050565b600060208201905081810360008301526136048161300c565b9050919050565b6000602082019050818103600083015261362481613072565b9050919050565b60006020820190508181036000830152613644816130d8565b9050919050565b600060208201905081810360008301526136648161313e565b9050919050565b600060208201905081810360008301526136848161317e565b9050919050565b60006020820190506136a060008301846131e4565b92915050565b60006040820190506136bb60008301866131e4565b81810360208301526136ce818486612a5f565b9050949350505050565b60006060820190506136ed60008301876131e4565b8181036020830152613700818587612a5f565b905061370f604083018461299e565b95945050505050565b6000604051905081810181811067ffffffffffffffff8211171561373f5761373e613b46565b5b8060405250919050565b600067ffffffffffffffff82111561376457613763613b46565b5b601f19601f8301169050602081019050919050565b600067ffffffffffffffff82111561379457613793613b46565b5b601f19601f8301169050602081019050919050565b600081519050919050565b600081519050919050565b600082825260208201905092915050565b600082825260208201905092915050565b600081905092915050565b60006137f782613952565b915061380283613952565b9250827fffffffffffffffffffffffffffffffffffffffffffffffffffffffffffffffff0382111561383757613836613ab9565b5b828201905092915050565b600061384d8261395c565b91506138588361395c565b92508260ff0382111561386e5761386d613ab9565b5b828201905092915050565b600061388482613952565b915061388f83613952565b92508261389f5761389e613ae8565b5b828204905092915050565b60006138b582613952565b91506138c083613952565b9250828210156138d3576138d2613ab9565b5b828203905092915050565b60006138e982613932565b9050919050565b60008115159050919050565b6000819050919050565b60007fffffffff0000000000000000000000000000000000000000000000000000000082169050919050565b600073ffffffffffffffffffffffffffffffffffffffff82169050919050565b6000819050919050565b600060ff82169050919050565b82818337600083830152505050565b60005b8381101561399657808201518184015260208101905061397b565b838111156139a5576000848401525b50505050565b600060028204905060018216806139c357607f821691505b602082108114156139d7576139d6613b17565b5b50919050565b60006139e882613952565b91507fffffffffffffffffffffffffffffffffffffffffffffffffffffffffffffffff821415613a1b57613a1a613ab9565b5b600182019050919050565b6000613a318261395c565b915060ff821415613a4557613a44613ab9565b5b600182019050919050565b6000613a5b82613a6c565b9050919050565b6000819050919050565b6000613a7782613b86565b9050919050565b6000819050919050565b6000613a9382613952565b9150613a9e83613952565b925082613aae57613aad613ae8565b5b828206905092915050565b7f4e487b7100000000000000000000000000000000000000000000000000000000600052601160045260246000fd5b7f4e487b7100000000000000000000000000000000000000000000000000000000600052601260045260246000fd5b7f4e487b7100000000000000000000000000000000000000000000000000000000600052602260045260246000fd5b7f4e487b7100000000000000000000000000000000000000000000000000000000600052604160045260246000fd5b6000601f19601f8301169050919050565b60008160601b9050919050565b613b9c816138de565b8114613ba757600080fd5b50565b613bb3816138f0565b8114613bbe57600080fd5b50565b613bca816138fc565b8114613bd557600080fd5b50565b613be181613906565b8114613bec57600080fd5b50565b613bf881613952565b8114613c0357600080fd5b5056fea2646970667358221220f587a21277c8ed34dc8c5317f31f585d97cd457d9c09bb6bedf6ec2661ae15e064736f6c63430008000033",
  "immutableReferences": {},
  "source": "pragma solidity ^0.8.0;\n\nimport \"@openzeppelin/contracts/token/ERC721/ERC721.sol\";\nimport \"@openzeppelin/contracts/token/ERC721/extensions/ERC721URIStorage.sol\";\nimport \"@openzeppelin/contracts/utils/Counters.sol\";\nimport \"@openzeppelin/contracts/utils/cryptography/ECDSA.sol\";\n\ncontract KiwiSign is ERC721URIStorage {\n\t\n\tusing ECDSA for bytes32;\n\tusing Counters for Counters.Counter;\n\tCounters.Counter public contract_id;\n\tCounters.Counter private poa_id;\n\n\tuint private constant IPFS_CID_LEN = 46;\n\n\tevent ContractRegistered (uint contract_id, string metadata);\n\tevent ContractSigned (uint contract_id, string input, address signer);\n\n\tmapping (uint256 => string) private contract_metadata;\n\tmapping (uint256 => address) private contract_key;\n\n\tconstructor() ERC721(\"KiwiSignPoAV0\", \"KSPoAV0\") {}\n\t\n\tfunction getCurrentContractId() external view returns(uint) {\n\t\treturn contract_id.current();\n\t}\n\n\tfunction createContract(string calldata metadata, address public_key) external returns(uint256) {\n\t\trequire(bytes(metadata).length == IPFS_CID_LEN, 'invalid metadata CID');\n\n\t\tcontract_id.increment();\n\t\tcontract_metadata[contract_id.current()] = metadata;\n\t\tcontract_key[contract_id.current()] = public_key;\n\n\t\temit ContractRegistered(contract_id.current(), metadata);\n\t\treturn contract_id.current();\n\t}\n\n\tfunction verifySignature(bytes calldata signature, uint256 id, string calldata input_cid) external returns(bool) {\n\t\trequire(bytes(input_cid).length == IPFS_CID_LEN, 'invalid input CID');\n\n\t\t// the signature verification implicitly assures the contract_id (id) is valid\n\t\taddress pub_address = this.getSigner(this.createSignatureHash(msg.sender, id), signature);\n\t\trequire(pub_address == contract_key[id], \"signature verification failed\");\n\n\t\tpoa_id.increment();\n\t\tuint256 new_poa_id = uint256(keccak256(abi.encodePacked(\n\t\t\tmsg.sender, poa_id.current(), block.timestamp\n\t\t)));\n\n\t\t_mint(msg.sender, new_poa_id);\n\t\t_setTokenURI(new_poa_id, this.bytes32ToString(keccak256(abi.encode(id))));\n\n\t\temit ContractSigned(id, input_cid, msg.sender);\n\t\treturn true;\n\t}\n\n\tfunction getMetadataFromContractId(uint256 id) external view returns(string memory) {\n\t\treturn contract_metadata[id];\n\t}\n\t\n\tfunction createSignatureHash(address signer, uint256 id) external pure returns(bytes32) {\n\t\treturn keccak256(abi.encodePacked(signer, id));\n\t}\n\n\tfunction bytes32ToString(bytes32 _bytes32) public pure returns (string memory) {\n\t\t\tuint8 i = 0;\n\t\t\twhile(i < 32 && _bytes32[i] != 0) {\n\t\t\t\t\ti++;\n\t\t\t}\n\t\t\tbytes memory bytesArray = new bytes(i);\n\t\t\tfor (i = 0; i < 32 && _bytes32[i] != 0; i++) {\n\t\t\t\t\tbytesArray[i] = _bytes32[i];\n\t\t\t}\n\t\t\treturn string(bytesArray);\n\t}\n\n\tfunction getSigner(bytes32 _hash, bytes memory _signature) public pure returns (address){\n\t\tbytes32 r;\n\t\tbytes32 s;\n\t\tuint8 v;\n\n\t\tif (_signature.length != 65) {\n\t\t\treturn address(0);\n\t\t}\n\n\t\tassembly {\n\t\t\tr := mload(add(_signature, 32))\n\t\t\ts := mload(add(_signature, 64))\n\t\t\tv := byte(0, mload(add(_signature, 96)))\n\t\t}\n\t\tif (v < 27) {\n\t\t\tv += 27;\n\t\t}\n\t\tif (v != 27 && v != 28) {\n\t\t\treturn address(0);\n\t\t} else {\n\t\t\treturn ecrecover(keccak256(\n\t\t\t\tabi.encodePacked(\"\\x19Ethereum Signed Message:\\n32\", _hash)\n\t\t\t), v, r, s);\n\t\t}\n  }\n} \n",
  "sourcePath": "/Users/songzhou/Desktop/old desktop/DEEEsktop/skyepass-repo/rdt/contracts/KiwiSign.sol",
  "compiler": {
    "name": "solc",
    "version": "0.8.0+commit.c7dfd78e.Emscripten.clang"
  },
  "schemaVersion": "3.2.3",
  "updatedAt": "2022-01-12T19:09:15.968Z",
  "networkType": "ethereum",
  "devdoc": {
    "kind": "dev",
    "methods": {
      "approve(address,uint256)": {
        "details": "See {IERC721-approve}."
      },
      "balanceOf(address)": {
        "details": "See {IERC721-balanceOf}."
      },
      "getApproved(uint256)": {
        "details": "See {IERC721-getApproved}."
      },
      "isApprovedForAll(address,address)": {
        "details": "See {IERC721-isApprovedForAll}."
      },
      "name()": {
        "details": "See {IERC721Metadata-name}."
      },
      "ownerOf(uint256)": {
        "details": "See {IERC721-ownerOf}."
      },
      "safeTransferFrom(address,address,uint256)": {
        "details": "See {IERC721-safeTransferFrom}."
      },
      "safeTransferFrom(address,address,uint256,bytes)": {
        "details": "See {IERC721-safeTransferFrom}."
      },
      "setApprovalForAll(address,bool)": {
        "details": "See {IERC721-setApprovalForAll}."
      },
      "supportsInterface(bytes4)": {
        "details": "See {IERC165-supportsInterface}."
      },
      "symbol()": {
        "details": "See {IERC721Metadata-symbol}."
      },
      "tokenURI(uint256)": {
        "details": "See {IERC721Metadata-tokenURI}."
      },
      "transferFrom(address,address,uint256)": {
        "details": "See {IERC721-transferFrom}."
      }
    },
    "version": 1
  },
  "userdoc": {
    "kind": "user",
    "methods": {},
    "version": 1
  }
}