{
  "contractName": "KiwiSign",
  "abi": [
    {
      "inputs": [],
      "stateMutability": "nonpayable",
      "type": "constructor"
    },
    {
      "anonymous": false,
      "inputs": [
        {
          "indexed": true,
          "internalType": "address",
          "name": "owner",
          "type": "address"
        },
        {
          "indexed": true,
          "internalType": "address",
          "name": "approved",
          "type": "address"
        },
        {
          "indexed": true,
          "internalType": "uint256",
          "name": "tokenId",
          "type": "uint256"
        }
      ],
      "name": "Approval",
      "type": "event"
    },
    {
      "anonymous": false,
      "inputs": [
        {
          "indexed": true,
          "internalType": "address",
          "name": "owner",
          "type": "address"
        },
        {
          "indexed": true,
          "internalType": "address",
          "name": "operator",
          "type": "address"
        },
        {
          "indexed": false,
          "internalType": "bool",
          "name": "approved",
          "type": "bool"
        }
      ],
      "name": "ApprovalForAll",
      "type": "event"
    },
    {
      "anonymous": false,
      "inputs": [
        {
          "indexed": false,
          "internalType": "uint256",
          "name": "contract_id",
          "type": "uint256"
        },
        {
          "indexed": false,
          "internalType": "string",
          "name": "metadata",
          "type": "string"
        }
      ],
      "name": "ContractRegistered",
      "type": "event"
    },
    {
      "anonymous": false,
      "inputs": [
        {
          "indexed": false,
          "internalType": "uint256",
          "name": "contract_id",
          "type": "uint256"
        },
        {
          "indexed": false,
          "internalType": "string",
          "name": "input",
          "type": "string"
        },
        {
          "indexed": false,
          "internalType": "address",
          "name": "signer",
          "type": "address"
        }
      ],
      "name": "ContractSigned",
      "type": "event"
    },
    {
      "anonymous": false,
      "inputs": [
        {
          "indexed": true,
          "internalType": "address",
          "name": "from",
          "type": "address"
        },
        {
          "indexed": true,
          "internalType": "address",
          "name": "to",
          "type": "address"
        },
        {
          "indexed": true,
          "internalType": "uint256",
          "name": "tokenId",
          "type": "uint256"
        }
      ],
      "name": "Transfer",
      "type": "event"
    },
    {
      "inputs": [
        {
          "internalType": "address",
          "name": "to",
          "type": "address"
        },
        {
          "internalType": "uint256",
          "name": "tokenId",
          "type": "uint256"
        }
      ],
      "name": "approve",
      "outputs": [],
      "stateMutability": "nonpayable",
      "type": "function"
    },
    {
      "inputs": [
        {
          "internalType": "address",
          "name": "owner",
          "type": "address"
        }
      ],
      "name": "balanceOf",
      "outputs": [
        {
          "internalType": "uint256",
          "name": "",
          "type": "uint256"
        }
      ],
      "stateMutability": "view",
      "type": "function",
      "constant": true
    },
    {
      "inputs": [],
      "name": "contract_id",
      "outputs": [
        {
          "internalType": "uint256",
          "name": "_value",
          "type": "uint256"
        }
      ],
      "stateMutability": "view",
      "type": "function",
      "constant": true
    },
    {
      "inputs": [
        {
          "internalType": "uint256",
          "name": "tokenId",
          "type": "uint256"
        }
      ],
      "name": "getApproved",
      "outputs": [
        {
          "internalType": "address",
          "name": "",
          "type": "address"
        }
      ],
      "stateMutability": "view",
      "type": "function",
      "constant": true
    },
    {
      "inputs": [
        {
          "internalType": "address",
          "name": "owner",
          "type": "address"
        },
        {
          "internalType": "address",
          "name": "operator",
          "type": "address"
        }
      ],
      "name": "isApprovedForAll",
      "outputs": [
        {
          "internalType": "bool",
          "name": "",
          "type": "bool"
        }
      ],
      "stateMutability": "view",
      "type": "function",
      "constant": true
    },
    {
      "inputs": [],
      "name": "name",
      "outputs": [
        {
          "internalType": "string",
          "name": "",
          "type": "string"
        }
      ],
      "stateMutability": "view",
      "type": "function",
      "constant": true
    },
    {
      "inputs": [
        {
          "internalType": "uint256",
          "name": "tokenId",
          "type": "uint256"
        }
      ],
      "name": "ownerOf",
      "outputs": [
        {
          "internalType": "address",
          "name": "",
          "type": "address"
        }
      ],
      "stateMutability": "view",
      "type": "function",
      "constant": true
    },
    {
      "inputs": [
        {
          "internalType": "address",
          "name": "from",
          "type": "address"
        },
        {
          "internalType": "address",
          "name": "to",
          "type": "address"
        },
        {
          "internalType": "uint256",
          "name": "tokenId",
          "type": "uint256"
        }
      ],
      "name": "safeTransferFrom",
      "outputs": [],
      "stateMutability": "nonpayable",
      "type": "function"
    },
    {
      "inputs": [
        {
          "internalType": "address",
          "name": "from",
          "type": "address"
        },
        {
          "internalType": "address",
          "name": "to",
          "type": "address"
        },
        {
          "internalType": "uint256",
          "name": "tokenId",
          "type": "uint256"
        },
        {
          "internalType": "bytes",
          "name": "_data",
          "type": "bytes"
        }
      ],
      "name": "safeTransferFrom",
      "outputs": [],
      "stateMutability": "nonpayable",
      "type": "function"
    },
    {
      "inputs": [
        {
          "internalType": "address",
          "name": "operator",
          "type": "address"
        },
        {
          "internalType": "bool",
          "name": "approved",
          "type": "bool"
        }
      ],
      "name": "setApprovalForAll",
      "outputs": [],
      "stateMutability": "nonpayable",
      "type": "function"
    },
    {
      "inputs": [
        {
          "internalType": "bytes4",
          "name": "interfaceId",
          "type": "bytes4"
        }
      ],
      "name": "supportsInterface",
      "outputs": [
        {
          "internalType": "bool",
          "name": "",
          "type": "bool"
        }
      ],
      "stateMutability": "view",
      "type": "function",
      "constant": true
    },
    {
      "inputs": [],
      "name": "symbol",
      "outputs": [
        {
          "internalType": "string",
          "name": "",
          "type": "string"
        }
      ],
      "stateMutability": "view",
      "type": "function",
      "constant": true
    },
    {
      "inputs": [
        {
          "internalType": "uint256",
          "name": "tokenId",
          "type": "uint256"
        }
      ],
      "name": "tokenURI",
      "outputs": [
        {
          "internalType": "string",
          "name": "",
          "type": "string"
        }
      ],
      "stateMutability": "view",
      "type": "function",
      "constant": true
    },
    {
      "inputs": [
        {
          "internalType": "address",
          "name": "from",
          "type": "address"
        },
        {
          "internalType": "address",
          "name": "to",
          "type": "address"
        },
        {
          "internalType": "uint256",
          "name": "tokenId",
          "type": "uint256"
        }
      ],
      "name": "transferFrom",
      "outputs": [],
      "stateMutability": "nonpayable",
      "type": "function"
    },
    {
      "inputs": [],
      "name": "getCurrentContractId",
      "outputs": [
        {
          "internalType": "uint256",
          "name": "",
          "type": "uint256"
        }
      ],
      "stateMutability": "view",
      "type": "function",
      "constant": true
    },
    {
      "inputs": [
        {
          "internalType": "string",
          "name": "metadata",
          "type": "string"
        },
        {
          "internalType": "address",
          "name": "public_key",
          "type": "address"
        }
      ],
      "name": "createContract",
      "outputs": [
        {
          "internalType": "uint256",
          "name": "",
          "type": "uint256"
        }
      ],
      "stateMutability": "nonpayable",
      "type": "function"
    },
    {
      "inputs": [
        {
          "internalType": "bytes",
          "name": "signature",
          "type": "bytes"
        },
        {
          "internalType": "uint256",
          "name": "id",
          "type": "uint256"
        },
        {
          "internalType": "string",
          "name": "input_cid",
          "type": "string"
        }
      ],
      "name": "verifySignature",
      "outputs": [
        {
          "internalType": "bool",
          "name": "",
          "type": "bool"
        }
      ],
      "stateMutability": "nonpayable",
      "type": "function"
    },
    {
      "inputs": [
        {
          "internalType": "uint256",
          "name": "id",
          "type": "uint256"
        }
      ],
      "name": "getMetadataFromContractId",
      "outputs": [
        {
          "internalType": "string",
          "name": "",
          "type": "string"
        }
      ],
      "stateMutability": "view",
      "type": "function",
      "constant": true
    },
    {
      "inputs": [
        {
          "internalType": "address",
          "name": "signer",
          "type": "address"
        },
        {
          "internalType": "uint256",
          "name": "id",
          "type": "uint256"
        }
      ],
      "name": "createSignatureHash",
      "outputs": [
        {
          "internalType": "bytes32",
          "name": "",
          "type": "bytes32"
        }
      ],
      "stateMutability": "pure",
      "type": "function",
      "constant": true
    },
    {
      "inputs": [
        {
          "internalType": "bytes32",
          "name": "_bytes32",
          "type": "bytes32"
        }
      ],
      "name": "bytes32ToString",
      "outputs": [
        {
          "internalType": "string",
          "name": "",
          "type": "string"
        }
      ],
      "stateMutability": "pure",
      "type": "function",
      "constant": true
    },
    {
      "inputs": [
        {
          "internalType": "bytes32",
          "name": "_hash",
          "type": "bytes32"
        },
        {
          "internalType": "bytes",
          "name": "_signature",
          "type": "bytes"
        }
      ],
      "name": "getSigner",
      "outputs": [
        {
          "internalType": "address",
          "name": "",
          "type": "address"
        }
      ],
      "stateMutability": "pure",
      "type": "function",
      "constant": true
    }
  ],
  "bytecode": "0x60806040523480156200001157600080fd5b506040518060400160405280600d81526020017f4b6977695369676e506f415630000000000000000000000000000000000000008152506040518060400160405280600781526020017f4b53506f41563000000000000000000000000000000000000000000000000000815250816000908051906020019062000096929190620000b8565b508060019080519060200190620000af929190620000b8565b505050620001cd565b828054620000c69062000168565b90600052602060002090601f016020900481019282620000ea576000855562000136565b82601f106200010557805160ff191683800117855562000136565b8280016001018555821562000136579182015b828111156200013557825182559160200191906001019062000118565b5b50905062000145919062000149565b5090565b5b80821115620001645760008160009055506001016200014a565b5090565b600060028204905060018216806200018157607f821691505b602082108114156200019857620001976200019e565b5b50919050565b7f4e487b7100000000000000000000000000000000000000000000000000000000600052602260045260246000fd5b613c3e80620001dd6000396000f3fe608060405234801561001057600080fd5b50600436106101375760003560e01c80639201de55116100b8578063c87b56dd1161007c578063c87b56dd14610360578063cfef316014610390578063dcd05962146103c0578063e985e9c5146103f0578063f7b2ec0d14610420578063ff155be01461045057610137565b80639201de55146102bc57806395d89b41146102ec57806399c4b24c1461030a578063a22cb46514610328578063b88d4fde1461034457610137565b80633ad32d16116100ff5780633ad32d16146101f25780633bd94a721461021057806342842e0e146102405780636352211e1461025c57806370a082311461028c57610137565b806301ffc9a71461013c57806306fdde031461016c578063081812fc1461018a578063095ea7b3146101ba57806323b872dd146101d6575b600080fd5b61015660048036038101906101519190612803565b610480565b604051610163919061335e565b60405180910390f35b610174610562565b604051610181919061340b565b60405180910390f35b6101a4600480360381019061019f9190612977565b6105f4565b6040516101b191906132ce565b60405180910390f35b6101d460048036038101906101cf9190612721565b610679565b005b6101f060048036038101906101eb919061261b565b610791565b005b6101fa6107f1565b604051610207919061368d565b60405180910390f35b61022a600480360381019061022591906128de565b6107fd565b604051610237919061368d565b60405180910390f35b61025a6004803603810190610255919061261b565b61092d565b005b61027660048036038101906102719190612977565b61094d565b60405161028391906132ce565b60405180910390f35b6102a660048036038101906102a1919061258d565b6109ff565b6040516102b3919061368d565b60405180910390f35b6102d660048036038101906102d1919061275d565b610ab7565b6040516102e3919061340b565b60405180910390f35b6102f4610d10565b604051610301919061340b565b60405180910390f35b610312610da2565b60405161031f919061368d565b60405180910390f35b610342600480360381019061033d91906126e5565b610db3565b005b61035e6004803603810190610359919061266a565b610dc9565b005b61037a60048036038101906103759190612977565b610e2b565b604051610387919061340b565b60405180910390f35b6103aa60048036038101906103a59190612977565b610f7d565b6040516103b7919061340b565b60405180910390f35b6103da60048036038101906103d59190612721565b611022565b6040516103e79190613379565b60405180910390f35b61040a600480360381019061040591906125df565b611055565b604051610417919061335e565b60405180910390f35b61043a600480360381019061043591906127af565b6110e9565b60405161044791906132ce565b60405180910390f35b61046a60048036038101906104659190612855565b6111e2565b604051610477919061335e565b60405180910390f35b60007f80ac58cd000000000000000000000000000000000000000000000000000000007bffffffffffffffffffffffffffffffffffffffffffffffffffffffff1916827bffffffffffffffffffffffffffffffffffffffffffffffffffffffff1916148061054b57507f5b5e139f000000000000000000000000000000000000000000000000000000007bffffffffffffffffffffffffffffffffffffffffffffffffffffffff1916827bffffffffffffffffffffffffffffffffffffffffffffffffffffffff1916145b8061055b575061055a8261153e565b5b9050919050565b606060008054610571906139ad565b80601f016020809104026020016040519081016040528092919081815260200182805461059d906139ad565b80156105ea5780601f106105bf576101008083540402835291602001916105ea565b820191906000526020600020905b8154815290600101906020018083116105cd57829003601f168201915b5050505050905090565b60006105ff826115a8565b61063e576040517f08c379a0000000000000000000000000000000000000000000000000000000008152600401610635906135cd565b60405180910390fd5b6004600083815260200190815260200160002060009054906101000a900473ffffffffffffffffffffffffffffffffffffffff169050919050565b60006106848261094d565b90508073ffffffffffffffffffffffffffffffffffffffff168373ffffffffffffffffffffffffffffffffffffffff1614156106f5576040517f08c379a00000000000000000000000000000000000000000000000000000000081526004016106ec9061362d565b60405180910390fd5b8073ffffffffffffffffffffffffffffffffffffffff16610714611614565b73ffffffffffffffffffffffffffffffffffffffff16148061074357506107428161073d611614565b611055565b5b610782576040517f08c379a0000000000000000000000000000000000000000000000000000000008152600401610779906134ed565b60405180910390fd5b61078c838361161c565b505050565b6107a261079c611614565b826116d5565b6107e1576040517f08c379a00000000000000000000000000000000000000000000000000000000081526004016107d89061366d565b60405180910390fd5b6107ec8383836117b3565b505050565b60078060000154905081565b6000602e8484905014610845576040517f08c379a000000000000000000000000000000000000000000000000000000000815260040161083c9061364d565b60405180910390fd5b61084f6007611a0f565b83836009600061085f6007611a25565b8152602001908152602001600020919061087a929190612258565b5081600a600061088a6007611a25565b815260200190815260200160002060006101000a81548173ffffffffffffffffffffffffffffffffffffffff021916908373ffffffffffffffffffffffffffffffffffffffff1602179055507f203a782f9a02098919af0317ae0234cd3338c0cae341a50f809fbb1f86cea2cd6109016007611a25565b8585604051610912939291906136a8565b60405180910390a16109246007611a25565b90509392505050565b61094883838360405180602001604052806000815250610dc9565b505050565b6000806002600084815260200190815260200160002060009054906101000a900473ffffffffffffffffffffffffffffffffffffffff169050600073ffffffffffffffffffffffffffffffffffffffff168173ffffffffffffffffffffffffffffffffffffffff1614156109f6576040517f08c379a00000000000000000000000000000000000000000000000000000000081526004016109ed9061354d565b60405180910390fd5b80915050919050565b60008073ffffffffffffffffffffffffffffffffffffffff168273ffffffffffffffffffffffffffffffffffffffff161415610a70576040517f08c379a0000000000000000000000000000000000000000000000000000000008152600401610a679061352d565b60405180910390fd5b600360008373ffffffffffffffffffffffffffffffffffffffff1673ffffffffffffffffffffffffffffffffffffffff168152602001908152602001600020549050919050565b606060005b60208160ff16108015610b345750600060f81b838260ff1660208110610b0b577f4e487b7100000000000000000000000000000000000000000000000000000000600052603260045260246000fd5b1a60f81b7effffffffffffffffffffffffffffffffffffffffffffffffffffffffffffff191614155b15610b4c578080610b4490613a28565b915050610abc565b60008160ff1667ffffffffffffffff811115610b91577f4e487b7100000000000000000000000000000000000000000000000000000000600052604160045260246000fd5b6040519080825280601f01601f191660200182016040528015610bc35781602001600182028036833780820191505090505b509050600091505b60208260ff16108015610c435750600060f81b848360ff1660208110610c1a577f4e487b7100000000000000000000000000000000000000000000000000000000600052603260045260246000fd5b1a60f81b7effffffffffffffffffffffffffffffffffffffffffffffffffffffffffffff191614155b15610d0657838260ff1660208110610c84577f4e487b7100000000000000000000000000000000000000000000000000000000600052603260045260246000fd5b1a60f81b818360ff1681518110610cc4577f4e487b7100000000000000000000000000000000000000000000000000000000600052603260045260246000fd5b60200101907effffffffffffffffffffffffffffffffffffffffffffffffffffffffffffff1916908160001a9053508180610cfe90613a28565b925050610bcb565b8092505050919050565b606060018054610d1f906139ad565b80601f0160208091040260200160405190810160405280929190818152602001828054610d4b906139ad565b8015610d985780601f10610d6d57610100808354040283529160200191610d98565b820191906000526020600020905b815481529060010190602001808311610d7b57829003601f168201915b5050505050905090565b6000610dae6007611a25565b905090565b610dc5610dbe611614565b8383611a33565b5050565b610dda610dd4611614565b836116d5565b610e19576040517f08c379a0000000000000000000000000000000000000000000000000000000008152600401610e109061366d565b60405180910390fd5b610e2584848484611ba0565b50505050565b6060610e36826115a8565b610e75576040517f08c379a0000000000000000000000000000000000000000000000000000000008152600401610e6c906135ad565b60405180910390fd5b6000600660008481526020019081526020016000208054610e95906139ad565b80601f0160208091040260200160405190810160405280929190818152602001828054610ec1906139ad565b8015610f0e5780601f10610ee357610100808354040283529160200191610f0e565b820191906000526020600020905b815481529060010190602001808311610ef157829003601f168201915b505050505090506000610f1f611bfc565b9050600081511415610f35578192505050610f78565b600082511115610f6a578082604051602001610f52929190613284565b60405160208183030381529060405292505050610f78565b610f7384611c13565b925050505b919050565b6060600960008381526020019081526020016000208054610f9d906139ad565b80601f0160208091040260200160405190810160405280929190818152602001828054610fc9906139ad565b80156110165780601f10610feb57610100808354040283529160200191611016565b820191906000526020600020905b815481529060010190602001808311610ff957829003601f168201915b50505050509050919050565b6000828260405160200161103792919061321b565b60405160208183030381529060405280519060200120905092915050565b6000600560008473ffffffffffffffffffffffffffffffffffffffff1673ffffffffffffffffffffffffffffffffffffffff16815260200190815260200160002060008373ffffffffffffffffffffffffffffffffffffffff1673ffffffffffffffffffffffffffffffffffffffff16815260200190815260200160002060009054906101000a900460ff16905092915050565b600080600080604185511461110457600093505050506111dc565b6020850151925060408501519150606085015160001a9050601b8160ff16101561113857601b816111359190613844565b90505b601b8160ff16141580156111505750601c8160ff1614155b1561116157600093505050506111dc565b60018660405160200161117491906132a8565b60405160208183030381529060405280519060200120828585604051600081526020016040526040516111aa94939291906133c6565b6020604051602081039080840390855afa1580156111cc573d6000803e3d6000fd5b5050506020604051035193505050505b92915050565b6000602e838390501461122a576040517f08c379a00000000000000000000000000000000000000000000000000000000081526004016112219061350d565b60405180910390fd5b60003073ffffffffffffffffffffffffffffffffffffffff1663f7b2ec0d3073ffffffffffffffffffffffffffffffffffffffff1663dcd0596233896040518363ffffffff1660e01b8152600401611283929190613335565b60206040518083038186803b15801561129b57600080fd5b505afa1580156112af573d6000803e3d6000fd5b505050506040513d601f19601f820116820180604052508101906112d39190612786565b89896040518463ffffffff1660e01b81526004016112f393929190613394565b60206040518083038186803b15801561130b57600080fd5b505afa15801561131f573d6000803e3d6000fd5b505050506040513d601f19601f8201168201806040525081019061134391906125b6565b9050600a600086815260200190815260200160002060009054906101000a900473ffffffffffffffffffffffffffffffffffffffff1673ffffffffffffffffffffffffffffffffffffffff168173ffffffffffffffffffffffffffffffffffffffff16146113e6576040517f08c379a00000000000000000000000000000000000000000000000000000000081526004016113dd906134ad565b60405180910390fd5b6113f06008611a0f565b6000336113fd6008611a25565b4260405160200161141093929190613247565b6040516020818303038152906040528051906020012060001c90506114353382611cba565b6114f2813073ffffffffffffffffffffffffffffffffffffffff16639201de5589604051602001611466919061368d565b604051602081830303815290604052805190602001206040518263ffffffff1660e01b81526004016114989190613379565b60006040518083038186803b1580156114b057600080fd5b505afa1580156114c4573d6000803e3d6000fd5b505050506040513d6000823e3d601f19601f820116820180604052508101906114ed9190612936565b611e88565b7f332dfc75486dd4949fdf57b9743b019682bf51cadfb237b4e224ff101c8023bb8686863360405161152794939291906136da565b60405180910390a160019250505095945050505050565b60007f01ffc9a7000000000000000000000000000000000000000000000000000000007bffffffffffffffffffffffffffffffffffffffffffffffffffffffff1916827bffffffffffffffffffffffffffffffffffffffffffffffffffffffff1916149050919050565b60008073ffffffffffffffffffffffffffffffffffffffff166002600084815260200190815260200160002060009054906101000a900473ffffffffffffffffffffffffffffffffffffffff1673ffffffffffffffffffffffffffffffffffffffff1614159050919050565b600033905090565b816004600083815260200190815260200160002060006101000a81548173ffffffffffffffffffffffffffffffffffffffff021916908373ffffffffffffffffffffffffffffffffffffffff160217905550808273ffffffffffffffffffffffffffffffffffffffff1661168f8361094d565b73ffffffffffffffffffffffffffffffffffffffff167f8c5be1e5ebec7d5bd14f71427d1e84f3dd0314c0f7b2291e5b200ac8c7c3b92560405160405180910390a45050565b60006116e0826115a8565b61171f576040517f08c379a0000000000000000000000000000000000000000000000000000000008152600401611716906134cd565b60405180910390fd5b600061172a8361094d565b90508073ffffffffffffffffffffffffffffffffffffffff168473ffffffffffffffffffffffffffffffffffffffff16148061179957508373ffffffffffffffffffffffffffffffffffffffff16611781846105f4565b73ffffffffffffffffffffffffffffffffffffffff16145b806117aa57506117a98185611055565b5b91505092915050565b8273ffffffffffffffffffffffffffffffffffffffff166117d38261094d565b73ffffffffffffffffffffffffffffffffffffffff1614611829576040517f08c379a0000000000000000000000000000000000000000000000000000000008152600401611820906135ed565b60405180910390fd5b600073ffffffffffffffffffffffffffffffffffffffff168273ffffffffffffffffffffffffffffffffffffffff161415611899576040517f08c379a00000000000000000000000000000000000000000000000000000000081526004016118909061346d565b60405180910390fd5b6118a4838383611efc565b6118af60008261161c565b6001600360008573ffffffffffffffffffffffffffffffffffffffff1673ffffffffffffffffffffffffffffffffffffffff16815260200190815260200160002060008282546118ff91906138ac565b925050819055506001600360008473ffffffffffffffffffffffffffffffffffffffff1673ffffffffffffffffffffffffffffffffffffffff168152602001908152602001600020600082825461195691906137ee565b92505081905550816002600083815260200190815260200160002060006101000a81548173ffffffffffffffffffffffffffffffffffffffff021916908373ffffffffffffffffffffffffffffffffffffffff160217905550808273ffffffffffffffffffffffffffffffffffffffff168473ffffffffffffffffffffffffffffffffffffffff167fddf252ad1be2c89b69c2b068fc378daa952ba7f163c4a11628f55a4df523b3ef60405160405180910390a4505050565b6001816000016000828254019250508190555050565b600081600001549050919050565b8173ffffffffffffffffffffffffffffffffffffffff168373ffffffffffffffffffffffffffffffffffffffff161415611aa2576040517f08c379a0000000000000000000000000000000000000000000000000000000008152600401611a999061348d565b60405180910390fd5b80600560008573ffffffffffffffffffffffffffffffffffffffff1673ffffffffffffffffffffffffffffffffffffffff16815260200190815260200160002060008473ffffffffffffffffffffffffffffffffffffffff1673ffffffffffffffffffffffffffffffffffffffff16815260200190815260200160002060006101000a81548160ff0219169083151502179055508173ffffffffffffffffffffffffffffffffffffffff168373ffffffffffffffffffffffffffffffffffffffff167f17307eab39ab6107e8899845ad3d59bd9653f200f220920489ca2b5937696c3183604051611b93919061335e565b60405180910390a3505050565b611bab8484846117b3565b611bb784848484611f01565b611bf6576040517f08c379a0000000000000000000000000000000000000000000000000000000008152600401611bed9061342d565b60405180910390fd5b50505050565b606060405180602001604052806000815250905090565b6060611c1e826115a8565b611c5d576040517f08c379a0000000000000000000000000000000000000000000000000000000008152600401611c549061360d565b60405180910390fd5b6000611c67611bfc565b90506000815111611c875760405180602001604052806000815250611cb2565b80611c9184612098565b604051602001611ca2929190613284565b6040516020818303038152906040525b915050919050565b600073ffffffffffffffffffffffffffffffffffffffff168273ffffffffffffffffffffffffffffffffffffffff161415611d2a576040517f08c379a0000000000000000000000000000000000000000000000000000000008152600401611d219061358d565b60405180910390fd5b611d33816115a8565b15611d73576040517f08c379a0000000000000000000000000000000000000000000000000000000008152600401611d6a9061344d565b60405180910390fd5b611d7f60008383611efc565b6001600360008473ffffffffffffffffffffffffffffffffffffffff1673ffffffffffffffffffffffffffffffffffffffff1681526020019081526020016000206000828254611dcf91906137ee565b92505081905550816002600083815260200190815260200160002060006101000a81548173ffffffffffffffffffffffffffffffffffffffff021916908373ffffffffffffffffffffffffffffffffffffffff160217905550808273ffffffffffffffffffffffffffffffffffffffff16600073ffffffffffffffffffffffffffffffffffffffff167fddf252ad1be2c89b69c2b068fc378daa952ba7f163c4a11628f55a4df523b3ef60405160405180910390a45050565b611e91826115a8565b611ed0576040517f08c379a0000000000000000000000000000000000000000000000000000000008152600401611ec79061356d565b60405180910390fd5b80600660008481526020019081526020016000209080519060200190611ef79291906122de565b505050565b505050565b6000611f228473ffffffffffffffffffffffffffffffffffffffff16612245565b1561208b578373ffffffffffffffffffffffffffffffffffffffff1663150b7a02611f4b611614565b8786866040518563ffffffff1660e01b8152600401611f6d94939291906132e9565b602060405180830381600087803b158015611f8757600080fd5b505af1925050508015611fb857506040513d601f19601f82011682018060405250810190611fb5919061282c565b60015b61203b573d8060008114611fe8576040519150601f19603f3d011682016040523d82523d6000602084013e611fed565b606091505b50600081511415612033576040517f08c379a000000000000000000000000000000000000000000000000000000000815260040161202a9061342d565b60405180910390fd5b805181602001fd5b63150b7a0260e01b7bffffffffffffffffffffffffffffffffffffffffffffffffffffffff1916817bffffffffffffffffffffffffffffffffffffffffffffffffffffffff191614915050612090565b600190505b949350505050565b606060008214156120e0576040518060400160405280600181526020017f30000000000000000000000000000000000000000000000000000000000000008152509050612240565b600082905060005b600082146121125780806120fb906139df565b915050600a8261210b919061387b565b91506120e8565b60008167ffffffffffffffff811115612154577f4e487b7100000000000000000000000000000000000000000000000000000000600052604160045260246000fd5b6040519080825280601f01601f1916602001820160405280156121865781602001600182028036833780820191505090505b5090505b600085146122395760018261219f91906138ac565b9150600a856121ae9190613a8a565b60306121ba91906137ee565b60f81b8183815181106121f6577f4e487b7100000000000000000000000000000000000000000000000000000000600052603260045260246000fd5b60200101907effffffffffffffffffffffffffffffffffffffffffffffffffffffffffffff1916908160001a905350600a85612232919061387b565b945061218a565b8093505050505b919050565b600080823b905060008111915050919050565b828054612264906139ad565b90600052602060002090601f01602090048101928261228657600085556122cd565b82601f1061229f57803560ff19168380011785556122cd565b828001600101855582156122cd579182015b828111156122cc5782358255916020019190600101906122b1565b5b5090506122da9190612364565b5090565b8280546122ea906139ad565b90600052602060002090601f01602090048101928261230c5760008555612353565b82601f1061232557805160ff1916838001178555612353565b82800160010185558215612353579182015b82811115612352578251825591602001919060010190612337565b5b5090506123609190612364565b5090565b5b8082111561237d576000816000905550600101612365565b5090565b600061239461238f8461374b565b61371a565b9050828152602081018484840111156123ac57600080fd5b6123b784828561396b565b509392505050565b60006123d26123cd8461377b565b61371a565b9050828152602081018484840111156123ea57600080fd5b6123f584828561397a565b509392505050565b60008135905061240c81613b95565b92915050565b60008151905061242181613b95565b92915050565b60008135905061243681613bac565b92915050565b60008135905061244b81613bc3565b92915050565b60008151905061246081613bc3565b92915050565b60008135905061247581613bda565b92915050565b60008151905061248a81613bda565b92915050565b60008083601f8401126124a257600080fd5b8235905067ffffffffffffffff8111156124bb57600080fd5b6020830191508360018202830111156124d357600080fd5b9250929050565b600082601f8301126124eb57600080fd5b81356124fb848260208601612381565b91505092915050565b60008083601f84011261251657600080fd5b8235905067ffffffffffffffff81111561252f57600080fd5b60208301915083600182028301111561254757600080fd5b9250929050565b600082601f83011261255f57600080fd5b815161256f8482602086016123bf565b91505092915050565b60008135905061258781613bf1565b92915050565b60006020828403121561259f57600080fd5b60006125ad848285016123fd565b91505092915050565b6000602082840312156125c857600080fd5b60006125d684828501612412565b91505092915050565b600080604083850312156125f257600080fd5b6000612600858286016123fd565b9250506020612611858286016123fd565b9150509250929050565b60008060006060848603121561263057600080fd5b600061263e868287016123fd565b935050602061264f868287016123fd565b925050604061266086828701612578565b9150509250925092565b6000806000806080858703121561268057600080fd5b600061268e878288016123fd565b945050602061269f878288016123fd565b93505060406126b087828801612578565b925050606085013567ffffffffffffffff8111156126cd57600080fd5b6126d9878288016124da565b91505092959194509250565b600080604083850312156126f857600080fd5b6000612706858286016123fd565b925050602061271785828601612427565b9150509250929050565b6000806040838503121561273457600080fd5b6000612742858286016123fd565b925050602061275385828601612578565b9150509250929050565b60006020828403121561276f57600080fd5b600061277d8482850161243c565b91505092915050565b60006020828403121561279857600080fd5b60006127a684828501612451565b91505092915050565b600080604083850312156127c257600080fd5b60006127d08582860161243c565b925050602083013567ffffffffffffffff8111156127ed57600080fd5b6127f9858286016124da565b9150509250929050565b60006020828403121561281557600080fd5b600061282384828501612466565b91505092915050565b60006020828403121561283e57600080fd5b600061284c8482850161247b565b91505092915050565b60008060008060006060868803121561286d57600080fd5b600086013567ffffffffffffffff81111561288757600080fd5b61289388828901612490565b955095505060206128a688828901612578565b935050604086013567ffffffffffffffff8111156128c357600080fd5b6128cf88828901612504565b92509250509295509295909350565b6000806000604084860312156128f357600080fd5b600084013567ffffffffffffffff81111561290d57600080fd5b61291986828701612504565b9350935050602061292c868287016123fd565b9150509250925092565b60006020828403121561294857600080fd5b600082015167ffffffffffffffff81111561296257600080fd5b61296e8482850161254e565b91505092915050565b60006020828403121561298957600080fd5b600061299784828501612578565b91505092915050565b6129a9816138e0565b82525050565b6129c06129bb826138e0565b613a52565b82525050565b6129cf816138f2565b82525050565b6129de816138fe565b82525050565b6129f56129f0826138fe565b613a64565b82525050565b6000612a0783856137c1565b9350612a1483858461396b565b612a1d83613b77565b840190509392505050565b6000612a33826137ab565b612a3d81856137c1565b9350612a4d81856020860161397a565b612a5681613b77565b840191505092915050565b6000612a6d83856137d2565b9350612a7a83858461396b565b612a8383613b77565b840190509392505050565b6000612a99826137b6565b612aa381856137d2565b9350612ab381856020860161397a565b612abc81613b77565b840191505092915050565b6000612ad2826137b6565b612adc81856137e3565b9350612aec81856020860161397a565b80840191505092915050565b6000612b05601c836137e3565b91507f19457468657265756d205369676e6564204d6573736167653a0a3332000000006000830152601c82019050919050565b6000612b456032836137d2565b91507f4552433732313a207472616e7366657220746f206e6f6e20455243373231526560008301527f63656976657220696d706c656d656e74657200000000000000000000000000006020830152604082019050919050565b6000612bab601c836137d2565b91507f4552433732313a20746f6b656e20616c7265616479206d696e746564000000006000830152602082019050919050565b6000612beb6024836137d2565b91507f4552433732313a207472616e7366657220746f20746865207a65726f2061646460008301527f72657373000000000000000000000000000000000000000000000000000000006020830152604082019050919050565b6000612c516019836137d2565b91507f4552433732313a20617070726f766520746f2063616c6c6572000000000000006000830152602082019050919050565b6000612c91601d836137d2565b91507f7369676e617475726520766572696669636174696f6e206661696c65640000006000830152602082019050919050565b6000612cd1602c836137d2565b91507f4552433732313a206f70657261746f7220717565727920666f72206e6f6e657860008301527f697374656e7420746f6b656e00000000000000000000000000000000000000006020830152604082019050919050565b6000612d376038836137d2565b91507f4552433732313a20617070726f76652063616c6c6572206973206e6f74206f7760008301527f6e6572206e6f7220617070726f76656420666f7220616c6c00000000000000006020830152604082019050919050565b6000612d9d6011836137d2565b91507f696e76616c696420696e707574204349440000000000000000000000000000006000830152602082019050919050565b6000612ddd602a836137d2565b91507f4552433732313a2062616c616e636520717565727920666f7220746865207a6560008301527f726f2061646472657373000000000000000000000000000000000000000000006020830152604082019050919050565b6000612e436029836137d2565b91507f4552433732313a206f776e657220717565727920666f72206e6f6e657869737460008301527f656e7420746f6b656e00000000000000000000000000000000000000000000006020830152604082019050919050565b6000612ea9602e836137d2565b91507f45524337323155524953746f726167653a2055524920736574206f66206e6f6e60008301527f6578697374656e7420746f6b656e0000000000000000000000000000000000006020830152604082019050919050565b6000612f0f6020836137d2565b91507f4552433732313a206d696e7420746f20746865207a65726f20616464726573736000830152602082019050919050565b6000612f4f6031836137d2565b91507f45524337323155524953746f726167653a2055524920717565727920666f722060008301527f6e6f6e6578697374656e7420746f6b656e0000000000000000000000000000006020830152604082019050919050565b6000612fb5602c836137d2565b91507f4552433732313a20617070726f76656420717565727920666f72206e6f6e657860008301527f697374656e7420746f6b656e00000000000000000000000000000000000000006020830152604082019050919050565b600061301b6029836137d2565b91507f4552433732313a207472616e73666572206f6620746f6b656e2074686174206960008301527f73206e6f74206f776e00000000000000000000000000000000000000000000006020830152604082019050919050565b6000613081602f836137d2565b91507f4552433732314d657461646174613a2055524920717565727920666f72206e6f60008301527f6e6578697374656e7420746f6b656e00000000000000000000000000000000006020830152604082019050919050565b60006130e76021836137d2565b91507f4552433732313a20617070726f76616c20746f2063757272656e74206f776e6560008301527f72000000000000000000000000000000000000000000000000000000000000006020830152604082019050919050565b600061314d6014836137d2565b91507f696e76616c6964206d65746164617461204349440000000000000000000000006000830152602082019050919050565b600061318d6031836137d2565b91507f4552433732313a207472616e736665722063616c6c6572206973206e6f74206f60008301527f776e6572206e6f7220617070726f7665640000000000000000000000000000006020830152604082019050919050565b6131ef81613954565b82525050565b61320661320182613954565b613a80565b82525050565b6132158161395e565b82525050565b600061322782856129af565b60148201915061323782846131f5565b6020820191508190509392505050565b600061325382866129af565b60148201915061326382856131f5565b60208201915061327382846131f5565b602082019150819050949350505050565b60006132908285612ac7565b915061329c8284612ac7565b91508190509392505050565b60006132b382612af8565b91506132bf82846129e4565b60208201915081905092915050565b60006020820190506132e360008301846129a0565b92915050565b60006080820190506132fe60008301876129a0565b61330b60208301866129a0565b61331860408301856131e6565b818103606083015261332a8184612a28565b905095945050505050565b600060408201905061334a60008301856129a0565b61335760208301846131e6565b9392505050565b600060208201905061337360008301846129c6565b92915050565b600060208201905061338e60008301846129d5565b92915050565b60006040820190506133a960008301866129d5565b81810360208301526133bc8184866129fb565b9050949350505050565b60006080820190506133db60008301876129d5565b6133e8602083018661320c565b6133f560408301856129d5565b61340260608301846129d5565b95945050505050565b600060208201905081810360008301526134258184612a8e565b905092915050565b6000602082019050818103600083015261344681612b38565b9050919050565b6000602082019050818103600083015261346681612b9e565b9050919050565b6000602082019050818103600083015261348681612bde565b9050919050565b600060208201905081810360008301526134a681612c44565b9050919050565b600060208201905081810360008301526134c681612c84565b9050919050565b600060208201905081810360008301526134e681612cc4565b9050919050565b6000602082019050818103600083015261350681612d2a565b9050919050565b6000602082019050818103600083015261352681612d90565b9050919050565b6000602082019050818103600083015261354681612dd0565b9050919050565b6000602082019050818103600083015261356681612e36565b9050919050565b6000602082019050818103600083015261358681612e9c565b9050919050565b600060208201905081810360008301526135a681612f02565b9050919050565b600060208201905081810360008301526135c681612f42565b9050919050565b600060208201905081810360008301526135e681612fa8565b9050919050565b600060208201905081810360008301526136068161300e565b9050919050565b6000602082019050818103600083015261362681613074565b9050919050565b60006020820190508181036000830152613646816130da565b9050919050565b6000602082019050818103600083015261366681613140565b9050919050565b6000602082019050818103600083015261368681613180565b9050919050565b60006020820190506136a260008301846131e6565b92915050565b60006040820190506136bd60008301866131e6565b81810360208301526136d0818486612a61565b9050949350505050565b60006060820190506136ef60008301876131e6565b8181036020830152613702818587612a61565b905061371160408301846129a0565b95945050505050565b6000604051905081810181811067ffffffffffffffff8211171561374157613740613b48565b5b8060405250919050565b600067ffffffffffffffff82111561376657613765613b48565b5b601f19601f8301169050602081019050919050565b600067ffffffffffffffff82111561379657613795613b48565b5b601f19601f8301169050602081019050919050565b600081519050919050565b600081519050919050565b600082825260208201905092915050565b600082825260208201905092915050565b600081905092915050565b60006137f982613954565b915061380483613954565b9250827fffffffffffffffffffffffffffffffffffffffffffffffffffffffffffffffff0382111561383957613838613abb565b5b828201905092915050565b600061384f8261395e565b915061385a8361395e565b92508260ff038211156138705761386f613abb565b5b828201905092915050565b600061388682613954565b915061389183613954565b9250826138a1576138a0613aea565b5b828204905092915050565b60006138b782613954565b91506138c283613954565b9250828210156138d5576138d4613abb565b5b828203905092915050565b60006138eb82613934565b9050919050565b60008115159050919050565b6000819050919050565b60007fffffffff0000000000000000000000000000000000000000000000000000000082169050919050565b600073ffffffffffffffffffffffffffffffffffffffff82169050919050565b6000819050919050565b600060ff82169050919050565b82818337600083830152505050565b60005b8381101561399857808201518184015260208101905061397d565b838111156139a7576000848401525b50505050565b600060028204905060018216806139c557607f821691505b602082108114156139d9576139d8613b19565b5b50919050565b60006139ea82613954565b91507fffffffffffffffffffffffffffffffffffffffffffffffffffffffffffffffff821415613a1d57613a1c613abb565b5b600182019050919050565b6000613a338261395e565b915060ff821415613a4757613a46613abb565b5b600182019050919050565b6000613a5d82613a6e565b9050919050565b6000819050919050565b6000613a7982613b88565b9050919050565b6000819050919050565b6000613a9582613954565b9150613aa083613954565b925082613ab057613aaf613aea565b5b828206905092915050565b7f4e487b7100000000000000000000000000000000000000000000000000000000600052601160045260246000fd5b7f4e487b7100000000000000000000000000000000000000000000000000000000600052601260045260246000fd5b7f4e487b7100000000000000000000000000000000000000000000000000000000600052602260045260246000fd5b7f4e487b7100000000000000000000000000000000000000000000000000000000600052604160045260246000fd5b6000601f19601f8301169050919050565b60008160601b9050919050565b613b9e816138e0565b8114613ba957600080fd5b50565b613bb5816138f2565b8114613bc057600080fd5b50565b613bcc816138fe565b8114613bd757600080fd5b50565b613be381613908565b8114613bee57600080fd5b50565b613bfa81613954565b8114613c0557600080fd5b5056fea2646970667358221220174e10e172ee33eee71d019c212e43e467523f7572cf38dac3b31e5c6267809e64736f6c63430008000033",
  "immutableReferences": {},
  "source": "pragma solidity ^0.8.0;\n\nimport \"@openzeppelin/contracts/token/ERC721/ERC721.sol\";\nimport \"@openzeppelin/contracts/token/ERC721/extensions/ERC721URIStorage.sol\";\nimport \"@openzeppelin/contracts/utils/Counters.sol\";\nimport \"@openzeppelin/contracts/utils/cryptography/ECDSA.sol\";\n\ncontract KiwiSign is ERC721URIStorage {\n\t\n\tusing ECDSA for bytes32;\n\tusing Counters for Counters.Counter;\n\tCounters.Counter public contract_id;\n\tCounters.Counter private poa_id;\n\n\tuint private constant IPFS_CID_LEN = 46;\n\n\tevent ContractRegistered (uint contract_id, string metadata);\n\tevent ContractSigned (uint contract_id, string input, address signer);\n\n\tmapping (uint256 => string) private contract_metadata;\n\tmapping (uint256 => address) private contract_key;\n\n\tconstructor() ERC721(\"KiwiSignPoAV0\", \"KSPoAV0\") {}\n\t\n\tfunction getCurrentContractId() external view returns(uint) {\n\t\treturn contract_id.current();\n\t}\n\n\tfunction createContract(string calldata metadata, address public_key) external returns(uint256) {\n\t\trequire(bytes(metadata).length == IPFS_CID_LEN, 'invalid metadata CID');\n\n\t\tcontract_id.increment();\n\t\tcontract_metadata[contract_id.current()] = metadata;\n\t\tcontract_key[contract_id.current()] = public_key;\n\n\t\temit ContractRegistered(contract_id.current(), metadata);\n\t\treturn contract_id.current();\n\t}\n\n\tfunction verifySignature(bytes calldata signature, uint256 id, string calldata input_cid) external returns(bool) {\n\t\trequire(bytes(input_cid).length == IPFS_CID_LEN, 'invalid input CID');\n\n\t\t// the signature verification implicitly assures the contract_id (id) is valid\n\t\taddress pub_address = this.getSigner(this.createSignatureHash(msg.sender, id), signature);\n\t\trequire(pub_address == contract_key[id], \"signature verification failed\");\n\n\t\tpoa_id.increment();\n\t\tuint256 new_poa_id = uint256(keccak256(abi.encodePacked(\n\t\t\tmsg.sender, poa_id.current(), block.timestamp\n\t\t)));\n\n\t\t_mint(msg.sender, new_poa_id);\n\t\t_setTokenURI(new_poa_id, this.bytes32ToString(keccak256(abi.encode(id))));\n\n\t\temit ContractSigned(id, input_cid, msg.sender);\n\t\treturn true;\n\t}\n\n\tfunction getMetadataFromContractId(uint256 id) external view returns(string memory) {\n\t\treturn contract_metadata[id];\n\t}\n\t\n\tfunction createSignatureHash(address signer, uint256 id) external pure returns(bytes32) {\n\t\treturn keccak256(abi.encodePacked(signer, id));\n\t}\n\n\tfunction bytes32ToString(bytes32 _bytes32) public pure returns (string memory) {\n\t\t\tuint8 i = 0;\n\t\t\twhile(i < 32 && _bytes32[i] != 0) {\n\t\t\t\t\ti++;\n\t\t\t}\n\t\t\tbytes memory bytesArray = new bytes(i);\n\t\t\tfor (i = 0; i < 32 && _bytes32[i] != 0; i++) {\n\t\t\t\t\tbytesArray[i] = _bytes32[i];\n\t\t\t}\n\t\t\treturn string(bytesArray);\n\t}\n\n\tfunction getSigner(bytes32 _hash, bytes memory _signature) public pure returns (address){\n\t\tbytes32 r;\n\t\tbytes32 s;\n\t\tuint8 v;\n\n\t\tif (_signature.length != 65) {\n\t\t\treturn address(0);\n\t\t}\n\n\t\tassembly {\n\t\t\tr := mload(add(_signature, 32))\n\t\t\ts := mload(add(_signature, 64))\n\t\t\tv := byte(0, mload(add(_signature, 96)))\n\t\t}\n\t\tif (v < 27) {\n\t\t\tv += 27;\n\t\t}\n\t\tif (v != 27 && v != 28) {\n\t\t\treturn address(0);\n\t\t} else {\n\t\t\treturn ecrecover(keccak256(\n\t\t\t\tabi.encodePacked(\"\\x19Ethereum Signed Message:\\n32\", _hash)\n\t\t\t), v, r, s);\n\t\t}\n  }\n} \n",
  "sourcePath": "/home/topdev/Work/SkyeKiwi/projects/kiwisign-contract/contracts/KiwiSign.sol",
  "compiler": {
    "name": "solc",
    "version": "0.8.0+commit.c7dfd78e.Emscripten.clang"
  },
  "schemaVersion": "3.4.4",
  "updatedAt": "2022-01-13T18:43:15.159Z",
  "networkType": "ethereum",
  "devdoc": {
    "kind": "dev",
    "methods": {
      "approve(address,uint256)": {
        "details": "See {IERC721-approve}."
      },
      "balanceOf(address)": {
        "details": "See {IERC721-balanceOf}."
      },
      "getApproved(uint256)": {
        "details": "See {IERC721-getApproved}."
      },
      "isApprovedForAll(address,address)": {
        "details": "See {IERC721-isApprovedForAll}."
      },
      "name()": {
        "details": "See {IERC721Metadata-name}."
      },
      "ownerOf(uint256)": {
        "details": "See {IERC721-ownerOf}."
      },
      "safeTransferFrom(address,address,uint256)": {
        "details": "See {IERC721-safeTransferFrom}."
      },
      "safeTransferFrom(address,address,uint256,bytes)": {
        "details": "See {IERC721-safeTransferFrom}."
      },
      "setApprovalForAll(address,bool)": {
        "details": "See {IERC721-setApprovalForAll}."
      },
      "supportsInterface(bytes4)": {
        "details": "See {IERC165-supportsInterface}."
      },
      "symbol()": {
        "details": "See {IERC721Metadata-symbol}."
      },
      "tokenURI(uint256)": {
        "details": "See {IERC721Metadata-tokenURI}."
      },
      "transferFrom(address,address,uint256)": {
        "details": "See {IERC721-transferFrom}."
      }
    },
    "version": 1
  },
  "userdoc": {
    "kind": "user",
    "methods": {},
    "version": 1
  }
}