{
  "contractName": "KiwiSign",
  "abi": [
    {
      "inputs": [],
      "stateMutability": "nonpayable",
      "type": "constructor"
    },
    {
      "anonymous": false,
      "inputs": [
        {
          "indexed": true,
          "internalType": "address",
          "name": "owner",
          "type": "address"
        },
        {
          "indexed": true,
          "internalType": "address",
          "name": "approved",
          "type": "address"
        },
        {
          "indexed": true,
          "internalType": "uint256",
          "name": "tokenId",
          "type": "uint256"
        }
      ],
      "name": "Approval",
      "type": "event"
    },
    {
      "anonymous": false,
      "inputs": [
        {
          "indexed": true,
          "internalType": "address",
          "name": "owner",
          "type": "address"
        },
        {
          "indexed": true,
          "internalType": "address",
          "name": "operator",
          "type": "address"
        },
        {
          "indexed": false,
          "internalType": "bool",
          "name": "approved",
          "type": "bool"
        }
      ],
      "name": "ApprovalForAll",
      "type": "event"
    },
    {
      "anonymous": false,
      "inputs": [
        {
          "indexed": true,
          "internalType": "address",
          "name": "from",
          "type": "address"
        },
        {
          "indexed": true,
          "internalType": "address",
          "name": "to",
          "type": "address"
        },
        {
          "indexed": true,
          "internalType": "uint256",
          "name": "tokenId",
          "type": "uint256"
        }
      ],
      "name": "Transfer",
      "type": "event"
    },
    {
      "inputs": [
        {
          "internalType": "address",
          "name": "to",
          "type": "address"
        },
        {
          "internalType": "uint256",
          "name": "tokenId",
          "type": "uint256"
        }
      ],
      "name": "approve",
      "outputs": [],
      "stateMutability": "nonpayable",
      "type": "function"
    },
    {
      "inputs": [
        {
          "internalType": "address",
          "name": "owner",
          "type": "address"
        }
      ],
      "name": "balanceOf",
      "outputs": [
        {
          "internalType": "uint256",
          "name": "",
          "type": "uint256"
        }
      ],
      "stateMutability": "view",
      "type": "function",
      "constant": true
    },
    {
      "inputs": [],
      "name": "contract_id",
      "outputs": [
        {
          "internalType": "uint256",
          "name": "_value",
          "type": "uint256"
        }
      ],
      "stateMutability": "view",
      "type": "function",
      "constant": true
    },
    {
      "inputs": [
        {
          "internalType": "uint256",
          "name": "tokenId",
          "type": "uint256"
        }
      ],
      "name": "getApproved",
      "outputs": [
        {
          "internalType": "address",
          "name": "",
          "type": "address"
        }
      ],
      "stateMutability": "view",
      "type": "function",
      "constant": true
    },
    {
      "inputs": [
        {
          "internalType": "address",
          "name": "owner",
          "type": "address"
        },
        {
          "internalType": "address",
          "name": "operator",
          "type": "address"
        }
      ],
      "name": "isApprovedForAll",
      "outputs": [
        {
          "internalType": "bool",
          "name": "",
          "type": "bool"
        }
      ],
      "stateMutability": "view",
      "type": "function",
      "constant": true
    },
    {
      "inputs": [],
      "name": "name",
      "outputs": [
        {
          "internalType": "string",
          "name": "",
          "type": "string"
        }
      ],
      "stateMutability": "view",
      "type": "function",
      "constant": true
    },
    {
      "inputs": [
        {
          "internalType": "uint256",
          "name": "tokenId",
          "type": "uint256"
        }
      ],
      "name": "ownerOf",
      "outputs": [
        {
          "internalType": "address",
          "name": "",
          "type": "address"
        }
      ],
      "stateMutability": "view",
      "type": "function",
      "constant": true
    },
    {
      "inputs": [
        {
          "internalType": "address",
          "name": "from",
          "type": "address"
        },
        {
          "internalType": "address",
          "name": "to",
          "type": "address"
        },
        {
          "internalType": "uint256",
          "name": "tokenId",
          "type": "uint256"
        }
      ],
      "name": "safeTransferFrom",
      "outputs": [],
      "stateMutability": "nonpayable",
      "type": "function"
    },
    {
      "inputs": [
        {
          "internalType": "address",
          "name": "from",
          "type": "address"
        },
        {
          "internalType": "address",
          "name": "to",
          "type": "address"
        },
        {
          "internalType": "uint256",
          "name": "tokenId",
          "type": "uint256"
        },
        {
          "internalType": "bytes",
          "name": "_data",
          "type": "bytes"
        }
      ],
      "name": "safeTransferFrom",
      "outputs": [],
      "stateMutability": "nonpayable",
      "type": "function"
    },
    {
      "inputs": [
        {
          "internalType": "address",
          "name": "operator",
          "type": "address"
        },
        {
          "internalType": "bool",
          "name": "approved",
          "type": "bool"
        }
      ],
      "name": "setApprovalForAll",
      "outputs": [],
      "stateMutability": "nonpayable",
      "type": "function"
    },
    {
      "inputs": [
        {
          "internalType": "bytes4",
          "name": "interfaceId",
          "type": "bytes4"
        }
      ],
      "name": "supportsInterface",
      "outputs": [
        {
          "internalType": "bool",
          "name": "",
          "type": "bool"
        }
      ],
      "stateMutability": "view",
      "type": "function",
      "constant": true
    },
    {
      "inputs": [],
      "name": "symbol",
      "outputs": [
        {
          "internalType": "string",
          "name": "",
          "type": "string"
        }
      ],
      "stateMutability": "view",
      "type": "function",
      "constant": true
    },
    {
      "inputs": [
        {
          "internalType": "uint256",
          "name": "tokenId",
          "type": "uint256"
        }
      ],
      "name": "tokenURI",
      "outputs": [
        {
          "internalType": "string",
          "name": "",
          "type": "string"
        }
      ],
      "stateMutability": "view",
      "type": "function",
      "constant": true
    },
    {
      "inputs": [
        {
          "internalType": "address",
          "name": "from",
          "type": "address"
        },
        {
          "internalType": "address",
          "name": "to",
          "type": "address"
        },
        {
          "internalType": "uint256",
          "name": "tokenId",
          "type": "uint256"
        }
      ],
      "name": "transferFrom",
      "outputs": [],
      "stateMutability": "nonpayable",
      "type": "function"
    },
    {
      "inputs": [],
      "name": "getCurrentContractId",
      "outputs": [
        {
          "internalType": "uint256",
          "name": "",
          "type": "uint256"
        }
      ],
      "stateMutability": "view",
      "type": "function",
      "constant": true
    },
    {
      "inputs": [
        {
          "internalType": "string",
          "name": "metadata",
          "type": "string"
        },
        {
          "internalType": "address",
          "name": "public_key",
          "type": "address"
        }
      ],
      "name": "createContract",
      "outputs": [
        {
          "internalType": "uint256",
          "name": "",
          "type": "uint256"
        }
      ],
      "stateMutability": "nonpayable",
      "type": "function"
    },
    {
      "inputs": [
        {
          "internalType": "bytes",
          "name": "signature",
          "type": "bytes"
        },
        {
          "internalType": "uint256",
          "name": "id",
          "type": "uint256"
        },
        {
          "internalType": "address",
          "name": "caller",
          "type": "address"
        }
      ],
      "name": "verifySignature",
      "outputs": [
        {
          "internalType": "bool",
          "name": "",
          "type": "bool"
        }
      ],
      "stateMutability": "nonpayable",
      "type": "function"
    },
    {
      "inputs": [
        {
          "internalType": "address",
          "name": "signer",
          "type": "address"
        },
        {
          "internalType": "uint256",
          "name": "id",
          "type": "uint256"
        }
      ],
      "name": "createSignatureHash",
      "outputs": [
        {
          "internalType": "bytes32",
          "name": "",
          "type": "bytes32"
        }
      ],
      "stateMutability": "pure",
      "type": "function",
      "constant": true
    },
    {
      "inputs": [
        {
          "internalType": "bytes32",
          "name": "_bytes32",
          "type": "bytes32"
        }
      ],
      "name": "bytes32ToString",
      "outputs": [
        {
          "internalType": "string",
          "name": "",
          "type": "string"
        }
      ],
      "stateMutability": "pure",
      "type": "function",
      "constant": true
    },
    {
      "inputs": [
        {
          "internalType": "bytes32",
          "name": "_hash",
          "type": "bytes32"
        },
        {
          "internalType": "bytes",
          "name": "_signature",
          "type": "bytes"
        }
      ],
      "name": "getSigner",
      "outputs": [
        {
          "internalType": "address",
          "name": "",
          "type": "address"
        }
      ],
      "stateMutability": "pure",
      "type": "function",
      "constant": true
    }
  ],
  "bytecode": "0x60806040523480156200001157600080fd5b506040518060400160405280600b81526020017f4b6977695369676e506f410000000000000000000000000000000000000000008152506040518060400160405280600581526020017f4b53506f41000000000000000000000000000000000000000000000000000000815250816000908051906020019062000096929190620000b8565b508060019080519060200190620000af929190620000b8565b505050620001cd565b828054620000c69062000168565b90600052602060002090601f016020900481019282620000ea576000855562000136565b82601f106200010557805160ff191683800117855562000136565b8280016001018555821562000136579182015b828111156200013557825182559160200191906001019062000118565b5b50905062000145919062000149565b5090565b5b80821115620001645760008160009055506001016200014a565b5090565b600060028204905060018216806200018157607f821691505b602082108114156200019857620001976200019e565b5b50919050565b7f4e487b7100000000000000000000000000000000000000000000000000000000600052602260045260246000fd5b613a7a80620001dd6000396000f3fe608060405234801561001057600080fd5b506004361061012c5760003560e01c80639201de55116100ad578063c2f0df6411610071578063c2f0df6414610355578063c87b56dd14610385578063dcd05962146103b5578063e985e9c5146103e5578063f7b2ec0d146104155761012c565b80639201de55146102b157806395d89b41146102e157806399c4b24c146102ff578063a22cb4651461031d578063b88d4fde146103395761012c565b80633ad32d16116100f45780633ad32d16146101e75780633bd94a721461020557806342842e0e146102355780636352211e1461025157806370a08231146102815761012c565b806301ffc9a71461013157806306fdde0314610161578063081812fc1461017f578063095ea7b3146101af57806323b872dd146101cb575b600080fd5b61014b600480360381019061014691906126fb565b610445565b604051610158919061320c565b60405180910390f35b610169610527565b60405161017691906132b9565b60405180910390f35b61019960048036038101906101949190612852565b6105b9565b6040516101a6919061317c565b60405180910390f35b6101c960048036038101906101c49190612619565b61063e565b005b6101e560048036038101906101e09190612513565b610756565b005b6101ef6107b6565b6040516101fc919061353b565b60405180910390f35b61021f600480360381019061021a91906127b9565b6107c2565b60405161022c919061353b565b60405180910390f35b61024f600480360381019061024a9190612513565b6108ae565b005b61026b60048036038101906102669190612852565b6108ce565b604051610278919061317c565b60405180910390f35b61029b60048036038101906102969190612485565b610980565b6040516102a8919061353b565b60405180910390f35b6102cb60048036038101906102c69190612655565b610a38565b6040516102d891906132b9565b60405180910390f35b6102e9610c91565b6040516102f691906132b9565b60405180910390f35b610307610d23565b604051610314919061353b565b60405180910390f35b610337600480360381019061033291906125dd565b610d34565b005b610353600480360381019061034e9190612562565b610eb5565b005b61036f600480360381019061036a919061274d565b610f17565b60405161037c919061320c565b60405180910390f35b61039f600480360381019061039a9190612852565b611291565b6040516103ac91906132b9565b60405180910390f35b6103cf60048036038101906103ca9190612619565b6113e3565b6040516103dc9190613227565b60405180910390f35b6103ff60048036038101906103fa91906124d7565b611416565b60405161040c919061320c565b60405180910390f35b61042f600480360381019061042a91906126a7565b6114aa565b60405161043c919061317c565b60405180910390f35b60007f80ac58cd000000000000000000000000000000000000000000000000000000007bffffffffffffffffffffffffffffffffffffffffffffffffffffffff1916827bffffffffffffffffffffffffffffffffffffffffffffffffffffffff1916148061051057507f5b5e139f000000000000000000000000000000000000000000000000000000007bffffffffffffffffffffffffffffffffffffffffffffffffffffffff1916827bffffffffffffffffffffffffffffffffffffffffffffffffffffffff1916145b80610520575061051f826115a3565b5b9050919050565b606060008054610536906137e9565b80601f0160208091040260200160405190810160405280929190818152602001828054610562906137e9565b80156105af5780601f10610584576101008083540402835291602001916105af565b820191906000526020600020905b81548152906001019060200180831161059257829003601f168201915b5050505050905090565b60006105c48261160d565b610603576040517f08c379a00000000000000000000000000000000000000000000000000000000081526004016105fa9061345b565b60405180910390fd5b6004600083815260200190815260200160002060009054906101000a900473ffffffffffffffffffffffffffffffffffffffff169050919050565b6000610649826108ce565b90508073ffffffffffffffffffffffffffffffffffffffff168373ffffffffffffffffffffffffffffffffffffffff1614156106ba576040517f08c379a00000000000000000000000000000000000000000000000000000000081526004016106b1906134bb565b60405180910390fd5b8073ffffffffffffffffffffffffffffffffffffffff166106d9611679565b73ffffffffffffffffffffffffffffffffffffffff161480610708575061070781610702611679565b611416565b5b610747576040517f08c379a000000000000000000000000000000000000000000000000000000000815260040161073e9061339b565b60405180910390fd5b6107518383611681565b505050565b610767610761611679565b8261173a565b6107a6576040517f08c379a000000000000000000000000000000000000000000000000000000000815260040161079d906134fb565b60405180910390fd5b6107b1838383611818565b505050565b60078060000154905081565b6000602e848490501461080a576040517f08c379a0000000000000000000000000000000000000000000000000000000008152600401610801906134db565b60405180910390fd5b6108146007611a74565b8383600960006108246007611a8a565b8152602001908152602001600020919061083f929190612150565b5081600a600061084f6007611a8a565b815260200190815260200160002060006101000a81548173ffffffffffffffffffffffffffffffffffffffff021916908373ffffffffffffffffffffffffffffffffffffffff1602179055506108a56007611a8a565b90509392505050565b6108c983838360405180602001604052806000815250610eb5565b505050565b6000806002600084815260200190815260200160002060009054906101000a900473ffffffffffffffffffffffffffffffffffffffff169050600073ffffffffffffffffffffffffffffffffffffffff168173ffffffffffffffffffffffffffffffffffffffff161415610977576040517f08c379a000000000000000000000000000000000000000000000000000000000815260040161096e906133db565b60405180910390fd5b80915050919050565b60008073ffffffffffffffffffffffffffffffffffffffff168273ffffffffffffffffffffffffffffffffffffffff1614156109f1576040517f08c379a00000000000000000000000000000000000000000000000000000000081526004016109e8906133bb565b60405180910390fd5b600360008373ffffffffffffffffffffffffffffffffffffffff1673ffffffffffffffffffffffffffffffffffffffff168152602001908152602001600020549050919050565b606060005b60208160ff16108015610ab55750600060f81b838260ff1660208110610a8c577f4e487b7100000000000000000000000000000000000000000000000000000000600052603260045260246000fd5b1a60f81b7effffffffffffffffffffffffffffffffffffffffffffffffffffffffffffff191614155b15610acd578080610ac590613864565b915050610a3d565b60008160ff1667ffffffffffffffff811115610b12577f4e487b7100000000000000000000000000000000000000000000000000000000600052604160045260246000fd5b6040519080825280601f01601f191660200182016040528015610b445781602001600182028036833780820191505090505b509050600091505b60208260ff16108015610bc45750600060f81b848360ff1660208110610b9b577f4e487b7100000000000000000000000000000000000000000000000000000000600052603260045260246000fd5b1a60f81b7effffffffffffffffffffffffffffffffffffffffffffffffffffffffffffff191614155b15610c8757838260ff1660208110610c05577f4e487b7100000000000000000000000000000000000000000000000000000000600052603260045260246000fd5b1a60f81b818360ff1681518110610c45577f4e487b7100000000000000000000000000000000000000000000000000000000600052603260045260246000fd5b60200101907effffffffffffffffffffffffffffffffffffffffffffffffffffffffffffff1916908160001a9053508180610c7f90613864565b925050610b4c565b8092505050919050565b606060018054610ca0906137e9565b80601f0160208091040260200160405190810160405280929190818152602001828054610ccc906137e9565b8015610d195780601f10610cee57610100808354040283529160200191610d19565b820191906000526020600020905b815481529060010190602001808311610cfc57829003601f168201915b5050505050905090565b6000610d2f6007611a8a565b905090565b610d3c611679565b73ffffffffffffffffffffffffffffffffffffffff168273ffffffffffffffffffffffffffffffffffffffff161415610daa576040517f08c379a0000000000000000000000000000000000000000000000000000000008152600401610da19061333b565b60405180910390fd5b8060056000610db7611679565b73ffffffffffffffffffffffffffffffffffffffff1673ffffffffffffffffffffffffffffffffffffffff16815260200190815260200160002060008473ffffffffffffffffffffffffffffffffffffffff1673ffffffffffffffffffffffffffffffffffffffff16815260200190815260200160002060006101000a81548160ff0219169083151502179055508173ffffffffffffffffffffffffffffffffffffffff16610e64611679565b73ffffffffffffffffffffffffffffffffffffffff167f17307eab39ab6107e8899845ad3d59bd9653f200f220920489ca2b5937696c3183604051610ea9919061320c565b60405180910390a35050565b610ec6610ec0611679565b8361173a565b610f05576040517f08c379a0000000000000000000000000000000000000000000000000000000008152600401610efc906134fb565b60405180910390fd5b610f1184848484611a98565b50505050565b60003073ffffffffffffffffffffffffffffffffffffffff163373ffffffffffffffffffffffffffffffffffffffff1614610fbb573373ffffffffffffffffffffffffffffffffffffffff168273ffffffffffffffffffffffffffffffffffffffff1614610fba576040517f08c379a0000000000000000000000000000000000000000000000000000000008152600401610fb19061351b565b60405180910390fd5b5b60003073ffffffffffffffffffffffffffffffffffffffff1663f7b2ec0d3073ffffffffffffffffffffffffffffffffffffffff1663dcd0596286886040518363ffffffff1660e01b81526004016110149291906131e3565b60206040518083038186803b15801561102c57600080fd5b505afa158015611040573d6000803e3d6000fd5b505050506040513d601f19601f82011682018060405250810190611064919061267e565b88886040518463ffffffff1660e01b815260040161108493929190613242565b60206040518083038186803b15801561109c57600080fd5b505afa1580156110b0573d6000803e3d6000fd5b505050506040513d601f19601f820116820180604052508101906110d491906124ae565b9050600a600085815260200190815260200160002060009054906101000a900473ffffffffffffffffffffffffffffffffffffffff1673ffffffffffffffffffffffffffffffffffffffff168173ffffffffffffffffffffffffffffffffffffffff1614611177576040517f08c379a000000000000000000000000000000000000000000000000000000000815260040161116e9061335b565b60405180910390fd5b6111816008611a74565b60008361118e6008611a8a565b426040516020016111a1939291906130f5565b6040516020818303038152906040528051906020012060001c90506111c68482611af4565b611283813073ffffffffffffffffffffffffffffffffffffffff16639201de55886040516020016111f7919061353b565b604051602081830303815290604052805190602001206040518263ffffffff1660e01b81526004016112299190613227565b60006040518083038186803b15801561124157600080fd5b505afa158015611255573d6000803e3d6000fd5b505050506040513d6000823e3d601f19601f8201168201806040525081019061127e9190612811565b611cc2565b600192505050949350505050565b606061129c8261160d565b6112db576040517f08c379a00000000000000000000000000000000000000000000000000000000081526004016112d29061343b565b60405180910390fd5b60006006600084815260200190815260200160002080546112fb906137e9565b80601f0160208091040260200160405190810160405280929190818152602001828054611327906137e9565b80156113745780601f1061134957610100808354040283529160200191611374565b820191906000526020600020905b81548152906001019060200180831161135757829003601f168201915b505050505090506000611385611d36565b905060008151141561139b5781925050506113de565b6000825111156113d05780826040516020016113b8929190613132565b604051602081830303815290604052925050506113de565b6113d984611d4d565b925050505b919050565b600082826040516020016113f89291906130c9565b60405160208183030381529060405280519060200120905092915050565b6000600560008473ffffffffffffffffffffffffffffffffffffffff1673ffffffffffffffffffffffffffffffffffffffff16815260200190815260200160002060008373ffffffffffffffffffffffffffffffffffffffff1673ffffffffffffffffffffffffffffffffffffffff16815260200190815260200160002060009054906101000a900460ff16905092915050565b60008060008060418551146114c5576000935050505061159d565b6020850151925060408501519150606085015160001a9050601b8160ff1610156114f957601b816114f69190613680565b90505b601b8160ff16141580156115115750601c8160ff1614155b15611522576000935050505061159d565b6001866040516020016115359190613156565b604051602081830303815290604052805190602001208285856040516000815260200160405260405161156b9493929190613274565b6020604051602081039080840390855afa15801561158d573d6000803e3d6000fd5b5050506020604051035193505050505b92915050565b60007f01ffc9a7000000000000000000000000000000000000000000000000000000007bffffffffffffffffffffffffffffffffffffffffffffffffffffffff1916827bffffffffffffffffffffffffffffffffffffffffffffffffffffffff1916149050919050565b60008073ffffffffffffffffffffffffffffffffffffffff166002600084815260200190815260200160002060009054906101000a900473ffffffffffffffffffffffffffffffffffffffff1673ffffffffffffffffffffffffffffffffffffffff1614159050919050565b600033905090565b816004600083815260200190815260200160002060006101000a81548173ffffffffffffffffffffffffffffffffffffffff021916908373ffffffffffffffffffffffffffffffffffffffff160217905550808273ffffffffffffffffffffffffffffffffffffffff166116f4836108ce565b73ffffffffffffffffffffffffffffffffffffffff167f8c5be1e5ebec7d5bd14f71427d1e84f3dd0314c0f7b2291e5b200ac8c7c3b92560405160405180910390a45050565b60006117458261160d565b611784576040517f08c379a000000000000000000000000000000000000000000000000000000000815260040161177b9061337b565b60405180910390fd5b600061178f836108ce565b90508073ffffffffffffffffffffffffffffffffffffffff168473ffffffffffffffffffffffffffffffffffffffff1614806117fe57508373ffffffffffffffffffffffffffffffffffffffff166117e6846105b9565b73ffffffffffffffffffffffffffffffffffffffff16145b8061180f575061180e8185611416565b5b91505092915050565b8273ffffffffffffffffffffffffffffffffffffffff16611838826108ce565b73ffffffffffffffffffffffffffffffffffffffff161461188e576040517f08c379a00000000000000000000000000000000000000000000000000000000081526004016118859061347b565b60405180910390fd5b600073ffffffffffffffffffffffffffffffffffffffff168273ffffffffffffffffffffffffffffffffffffffff1614156118fe576040517f08c379a00000000000000000000000000000000000000000000000000000000081526004016118f59061331b565b60405180910390fd5b611909838383611df4565b611914600082611681565b6001600360008573ffffffffffffffffffffffffffffffffffffffff1673ffffffffffffffffffffffffffffffffffffffff168152602001908152602001600020600082825461196491906136e8565b925050819055506001600360008473ffffffffffffffffffffffffffffffffffffffff1673ffffffffffffffffffffffffffffffffffffffff16815260200190815260200160002060008282546119bb919061362a565b92505081905550816002600083815260200190815260200160002060006101000a81548173ffffffffffffffffffffffffffffffffffffffff021916908373ffffffffffffffffffffffffffffffffffffffff160217905550808273ffffffffffffffffffffffffffffffffffffffff168473ffffffffffffffffffffffffffffffffffffffff167fddf252ad1be2c89b69c2b068fc378daa952ba7f163c4a11628f55a4df523b3ef60405160405180910390a4505050565b6001816000016000828254019250508190555050565b600081600001549050919050565b611aa3848484611818565b611aaf84848484611df9565b611aee576040517f08c379a0000000000000000000000000000000000000000000000000000000008152600401611ae5906132db565b60405180910390fd5b50505050565b600073ffffffffffffffffffffffffffffffffffffffff168273ffffffffffffffffffffffffffffffffffffffff161415611b64576040517f08c379a0000000000000000000000000000000000000000000000000000000008152600401611b5b9061341b565b60405180910390fd5b611b6d8161160d565b15611bad576040517f08c379a0000000000000000000000000000000000000000000000000000000008152600401611ba4906132fb565b60405180910390fd5b611bb960008383611df4565b6001600360008473ffffffffffffffffffffffffffffffffffffffff1673ffffffffffffffffffffffffffffffffffffffff1681526020019081526020016000206000828254611c09919061362a565b92505081905550816002600083815260200190815260200160002060006101000a81548173ffffffffffffffffffffffffffffffffffffffff021916908373ffffffffffffffffffffffffffffffffffffffff160217905550808273ffffffffffffffffffffffffffffffffffffffff16600073ffffffffffffffffffffffffffffffffffffffff167fddf252ad1be2c89b69c2b068fc378daa952ba7f163c4a11628f55a4df523b3ef60405160405180910390a45050565b611ccb8261160d565b611d0a576040517f08c379a0000000000000000000000000000000000000000000000000000000008152600401611d01906133fb565b60405180910390fd5b80600660008481526020019081526020016000209080519060200190611d319291906121d6565b505050565b606060405180602001604052806000815250905090565b6060611d588261160d565b611d97576040517f08c379a0000000000000000000000000000000000000000000000000000000008152600401611d8e9061349b565b60405180910390fd5b6000611da1611d36565b90506000815111611dc15760405180602001604052806000815250611dec565b80611dcb84611f90565b604051602001611ddc929190613132565b6040516020818303038152906040525b915050919050565b505050565b6000611e1a8473ffffffffffffffffffffffffffffffffffffffff1661213d565b15611f83578373ffffffffffffffffffffffffffffffffffffffff1663150b7a02611e43611679565b8786866040518563ffffffff1660e01b8152600401611e659493929190613197565b602060405180830381600087803b158015611e7f57600080fd5b505af1925050508015611eb057506040513d601f19601f82011682018060405250810190611ead9190612724565b60015b611f33573d8060008114611ee0576040519150601f19603f3d011682016040523d82523d6000602084013e611ee5565b606091505b50600081511415611f2b576040517f08c379a0000000000000000000000000000000000000000000000000000000008152600401611f22906132db565b60405180910390fd5b805181602001fd5b63150b7a0260e01b7bffffffffffffffffffffffffffffffffffffffffffffffffffffffff1916817bffffffffffffffffffffffffffffffffffffffffffffffffffffffff191614915050611f88565b600190505b949350505050565b60606000821415611fd8576040518060400160405280600181526020017f30000000000000000000000000000000000000000000000000000000000000008152509050612138565b600082905060005b6000821461200a578080611ff39061381b565b915050600a8261200391906136b7565b9150611fe0565b60008167ffffffffffffffff81111561204c577f4e487b7100000000000000000000000000000000000000000000000000000000600052604160045260246000fd5b6040519080825280601f01601f19166020018201604052801561207e5781602001600182028036833780820191505090505b5090505b600085146121315760018261209791906136e8565b9150600a856120a691906138c6565b60306120b2919061362a565b60f81b8183815181106120ee577f4e487b7100000000000000000000000000000000000000000000000000000000600052603260045260246000fd5b60200101907effffffffffffffffffffffffffffffffffffffffffffffffffffffffffffff1916908160001a905350600a8561212a91906136b7565b9450612082565b8093505050505b919050565b600080823b905060008111915050919050565b82805461215c906137e9565b90600052602060002090601f01602090048101928261217e57600085556121c5565b82601f1061219757803560ff19168380011785556121c5565b828001600101855582156121c5579182015b828111156121c45782358255916020019190600101906121a9565b5b5090506121d2919061225c565b5090565b8280546121e2906137e9565b90600052602060002090601f016020900481019282612204576000855561224b565b82601f1061221d57805160ff191683800117855561224b565b8280016001018555821561224b579182015b8281111561224a57825182559160200191906001019061222f565b5b509050612258919061225c565b5090565b5b8082111561227557600081600090555060010161225d565b5090565b600061228c61228784613587565b613556565b9050828152602081018484840111156122a457600080fd5b6122af8482856137a7565b509392505050565b60006122ca6122c5846135b7565b613556565b9050828152602081018484840111156122e257600080fd5b6122ed8482856137b6565b509392505050565b600081359050612304816139d1565b92915050565b600081519050612319816139d1565b92915050565b60008135905061232e816139e8565b92915050565b600081359050612343816139ff565b92915050565b600081519050612358816139ff565b92915050565b60008135905061236d81613a16565b92915050565b60008151905061238281613a16565b92915050565b60008083601f84011261239a57600080fd5b8235905067ffffffffffffffff8111156123b357600080fd5b6020830191508360018202830111156123cb57600080fd5b9250929050565b600082601f8301126123e357600080fd5b81356123f3848260208601612279565b91505092915050565b60008083601f84011261240e57600080fd5b8235905067ffffffffffffffff81111561242757600080fd5b60208301915083600182028301111561243f57600080fd5b9250929050565b600082601f83011261245757600080fd5b81516124678482602086016122b7565b91505092915050565b60008135905061247f81613a2d565b92915050565b60006020828403121561249757600080fd5b60006124a5848285016122f5565b91505092915050565b6000602082840312156124c057600080fd5b60006124ce8482850161230a565b91505092915050565b600080604083850312156124ea57600080fd5b60006124f8858286016122f5565b9250506020612509858286016122f5565b9150509250929050565b60008060006060848603121561252857600080fd5b6000612536868287016122f5565b9350506020612547868287016122f5565b925050604061255886828701612470565b9150509250925092565b6000806000806080858703121561257857600080fd5b6000612586878288016122f5565b9450506020612597878288016122f5565b93505060406125a887828801612470565b925050606085013567ffffffffffffffff8111156125c557600080fd5b6125d1878288016123d2565b91505092959194509250565b600080604083850312156125f057600080fd5b60006125fe858286016122f5565b925050602061260f8582860161231f565b9150509250929050565b6000806040838503121561262c57600080fd5b600061263a858286016122f5565b925050602061264b85828601612470565b9150509250929050565b60006020828403121561266757600080fd5b600061267584828501612334565b91505092915050565b60006020828403121561269057600080fd5b600061269e84828501612349565b91505092915050565b600080604083850312156126ba57600080fd5b60006126c885828601612334565b925050602083013567ffffffffffffffff8111156126e557600080fd5b6126f1858286016123d2565b9150509250929050565b60006020828403121561270d57600080fd5b600061271b8482850161235e565b91505092915050565b60006020828403121561273657600080fd5b600061274484828501612373565b91505092915050565b6000806000806060858703121561276357600080fd5b600085013567ffffffffffffffff81111561277d57600080fd5b61278987828801612388565b9450945050602061279c87828801612470565b92505060406127ad878288016122f5565b91505092959194509250565b6000806000604084860312156127ce57600080fd5b600084013567ffffffffffffffff8111156127e857600080fd5b6127f4868287016123fc565b93509350506020612807868287016122f5565b9150509250925092565b60006020828403121561282357600080fd5b600082015167ffffffffffffffff81111561283d57600080fd5b61284984828501612446565b91505092915050565b60006020828403121561286457600080fd5b600061287284828501612470565b91505092915050565b6128848161371c565b82525050565b61289b6128968261371c565b61388e565b82525050565b6128aa8161372e565b82525050565b6128b98161373a565b82525050565b6128d06128cb8261373a565b6138a0565b82525050565b60006128e283856135fd565b93506128ef8385846137a7565b6128f8836139b3565b840190509392505050565b600061290e826135e7565b61291881856135fd565b93506129288185602086016137b6565b612931816139b3565b840191505092915050565b6000612947826135f2565b612951818561360e565b93506129618185602086016137b6565b61296a816139b3565b840191505092915050565b6000612980826135f2565b61298a818561361f565b935061299a8185602086016137b6565b80840191505092915050565b60006129b3601c8361361f565b91507f19457468657265756d205369676e6564204d6573736167653a0a3332000000006000830152601c82019050919050565b60006129f360328361360e565b91507f4552433732313a207472616e7366657220746f206e6f6e20455243373231526560008301527f63656976657220696d706c656d656e74657200000000000000000000000000006020830152604082019050919050565b6000612a59601c8361360e565b91507f4552433732313a20746f6b656e20616c7265616479206d696e746564000000006000830152602082019050919050565b6000612a9960248361360e565b91507f4552433732313a207472616e7366657220746f20746865207a65726f2061646460008301527f72657373000000000000000000000000000000000000000000000000000000006020830152604082019050919050565b6000612aff60198361360e565b91507f4552433732313a20617070726f766520746f2063616c6c6572000000000000006000830152602082019050919050565b6000612b3f601d8361360e565b91507f7369676e617475726520766572696669636174696f6e206661696c65640000006000830152602082019050919050565b6000612b7f602c8361360e565b91507f4552433732313a206f70657261746f7220717565727920666f72206e6f6e657860008301527f697374656e7420746f6b656e00000000000000000000000000000000000000006020830152604082019050919050565b6000612be560388361360e565b91507f4552433732313a20617070726f76652063616c6c6572206973206e6f74206f7760008301527f6e6572206e6f7220617070726f76656420666f7220616c6c00000000000000006020830152604082019050919050565b6000612c4b602a8361360e565b91507f4552433732313a2062616c616e636520717565727920666f7220746865207a6560008301527f726f2061646472657373000000000000000000000000000000000000000000006020830152604082019050919050565b6000612cb160298361360e565b91507f4552433732313a206f776e657220717565727920666f72206e6f6e657869737460008301527f656e7420746f6b656e00000000000000000000000000000000000000000000006020830152604082019050919050565b6000612d17602e8361360e565b91507f45524337323155524953746f726167653a2055524920736574206f66206e6f6e60008301527f6578697374656e7420746f6b656e0000000000000000000000000000000000006020830152604082019050919050565b6000612d7d60208361360e565b91507f4552433732313a206d696e7420746f20746865207a65726f20616464726573736000830152602082019050919050565b6000612dbd60318361360e565b91507f45524337323155524953746f726167653a2055524920717565727920666f722060008301527f6e6f6e6578697374656e7420746f6b656e0000000000000000000000000000006020830152604082019050919050565b6000612e23602c8361360e565b91507f4552433732313a20617070726f76656420717565727920666f72206e6f6e657860008301527f697374656e7420746f6b656e00000000000000000000000000000000000000006020830152604082019050919050565b6000612e8960298361360e565b91507f4552433732313a207472616e73666572206f6620746f6b656e2074686174206960008301527f73206e6f74206f776e00000000000000000000000000000000000000000000006020830152604082019050919050565b6000612eef602f8361360e565b91507f4552433732314d657461646174613a2055524920717565727920666f72206e6f60008301527f6e6578697374656e7420746f6b656e00000000000000000000000000000000006020830152604082019050919050565b6000612f5560218361360e565b91507f4552433732313a20617070726f76616c20746f2063757272656e74206f776e6560008301527f72000000000000000000000000000000000000000000000000000000000000006020830152604082019050919050565b6000612fbb60148361360e565b91507f696e76616c6964206d65746164617461204349440000000000000000000000006000830152602082019050919050565b6000612ffb60318361360e565b91507f4552433732313a207472616e736665722063616c6c6572206973206e6f74206f60008301527f776e6572206e6f7220617070726f7665640000000000000000000000000000006020830152604082019050919050565b600061306160198361360e565b91507f626164206f726967696e2c206163636573732064656e696564000000000000006000830152602082019050919050565b61309d81613790565b82525050565b6130b46130af82613790565b6138bc565b82525050565b6130c38161379a565b82525050565b60006130d5828561288a565b6014820191506130e582846130a3565b6020820191508190509392505050565b6000613101828661288a565b60148201915061311182856130a3565b60208201915061312182846130a3565b602082019150819050949350505050565b600061313e8285612975565b915061314a8284612975565b91508190509392505050565b6000613161826129a6565b915061316d82846128bf565b60208201915081905092915050565b6000602082019050613191600083018461287b565b92915050565b60006080820190506131ac600083018761287b565b6131b9602083018661287b565b6131c66040830185613094565b81810360608301526131d88184612903565b905095945050505050565b60006040820190506131f8600083018561287b565b6132056020830184613094565b9392505050565b600060208201905061322160008301846128a1565b92915050565b600060208201905061323c60008301846128b0565b92915050565b600060408201905061325760008301866128b0565b818103602083015261326a8184866128d6565b9050949350505050565b600060808201905061328960008301876128b0565b61329660208301866130ba565b6132a360408301856128b0565b6132b060608301846128b0565b95945050505050565b600060208201905081810360008301526132d3818461293c565b905092915050565b600060208201905081810360008301526132f4816129e6565b9050919050565b6000602082019050818103600083015261331481612a4c565b9050919050565b6000602082019050818103600083015261333481612a8c565b9050919050565b6000602082019050818103600083015261335481612af2565b9050919050565b6000602082019050818103600083015261337481612b32565b9050919050565b6000602082019050818103600083015261339481612b72565b9050919050565b600060208201905081810360008301526133b481612bd8565b9050919050565b600060208201905081810360008301526133d481612c3e565b9050919050565b600060208201905081810360008301526133f481612ca4565b9050919050565b6000602082019050818103600083015261341481612d0a565b9050919050565b6000602082019050818103600083015261343481612d70565b9050919050565b6000602082019050818103600083015261345481612db0565b9050919050565b6000602082019050818103600083015261347481612e16565b9050919050565b6000602082019050818103600083015261349481612e7c565b9050919050565b600060208201905081810360008301526134b481612ee2565b9050919050565b600060208201905081810360008301526134d481612f48565b9050919050565b600060208201905081810360008301526134f481612fae565b9050919050565b6000602082019050818103600083015261351481612fee565b9050919050565b6000602082019050818103600083015261353481613054565b9050919050565b60006020820190506135506000830184613094565b92915050565b6000604051905081810181811067ffffffffffffffff8211171561357d5761357c613984565b5b8060405250919050565b600067ffffffffffffffff8211156135a2576135a1613984565b5b601f19601f8301169050602081019050919050565b600067ffffffffffffffff8211156135d2576135d1613984565b5b601f19601f8301169050602081019050919050565b600081519050919050565b600081519050919050565b600082825260208201905092915050565b600082825260208201905092915050565b600081905092915050565b600061363582613790565b915061364083613790565b9250827fffffffffffffffffffffffffffffffffffffffffffffffffffffffffffffffff03821115613675576136746138f7565b5b828201905092915050565b600061368b8261379a565b91506136968361379a565b92508260ff038211156136ac576136ab6138f7565b5b828201905092915050565b60006136c282613790565b91506136cd83613790565b9250826136dd576136dc613926565b5b828204905092915050565b60006136f382613790565b91506136fe83613790565b925082821015613711576137106138f7565b5b828203905092915050565b600061372782613770565b9050919050565b60008115159050919050565b6000819050919050565b60007fffffffff0000000000000000000000000000000000000000000000000000000082169050919050565b600073ffffffffffffffffffffffffffffffffffffffff82169050919050565b6000819050919050565b600060ff82169050919050565b82818337600083830152505050565b60005b838110156137d45780820151818401526020810190506137b9565b838111156137e3576000848401525b50505050565b6000600282049050600182168061380157607f821691505b6020821081141561381557613814613955565b5b50919050565b600061382682613790565b91507fffffffffffffffffffffffffffffffffffffffffffffffffffffffffffffffff821415613859576138586138f7565b5b600182019050919050565b600061386f8261379a565b915060ff821415613883576138826138f7565b5b600182019050919050565b6000613899826138aa565b9050919050565b6000819050919050565b60006138b5826139c4565b9050919050565b6000819050919050565b60006138d182613790565b91506138dc83613790565b9250826138ec576138eb613926565b5b828206905092915050565b7f4e487b7100000000000000000000000000000000000000000000000000000000600052601160045260246000fd5b7f4e487b7100000000000000000000000000000000000000000000000000000000600052601260045260246000fd5b7f4e487b7100000000000000000000000000000000000000000000000000000000600052602260045260246000fd5b7f4e487b7100000000000000000000000000000000000000000000000000000000600052604160045260246000fd5b6000601f19601f8301169050919050565b60008160601b9050919050565b6139da8161371c565b81146139e557600080fd5b50565b6139f18161372e565b81146139fc57600080fd5b50565b613a088161373a565b8114613a1357600080fd5b50565b613a1f81613744565b8114613a2a57600080fd5b50565b613a3681613790565b8114613a4157600080fd5b5056fea2646970667358221220648c947c68ee9bd3d6c4bfacf9a82054a0db54bf243fb22f29c0afe49556d21d64736f6c63430008000033",
  "immutableReferences": {},
  "source": "pragma solidity ^0.8.0;\n\nimport \"@openzeppelin/contracts/token/ERC721/ERC721.sol\";\nimport \"@openzeppelin/contracts/token/ERC721/extensions/ERC721URIStorage.sol\";\nimport \"@openzeppelin/contracts/utils/Counters.sol\";\nimport \"@openzeppelin/contracts/utils/cryptography/ECDSA.sol\";\n\ncontract KiwiSign is ERC721URIStorage {\n\t\n\tusing ECDSA for bytes32;\n\tusing Counters for Counters.Counter;\n\tCounters.Counter public contract_id;\n\tCounters.Counter private poa_id;\n\n\tuint private constant IPFS_CID_LEN = 46;\n\n\tmapping (uint256 => string) private contract_metadata;\n\tmapping (uint256 => address) private contract_key;\n\n\tconstructor() ERC721(\"KiwiSignPoA\", \"KSPoA\") {}\n\t\n\tfunction getCurrentContractId() external view returns(uint) {\n\t\treturn contract_id.current();\n\t}\n\n\tfunction createContract(string calldata metadata, address public_key) external returns(uint256) {\n\t\trequire(bytes(metadata).length == IPFS_CID_LEN, 'invalid metadata CID');\n\n\t\tcontract_id.increment();\n\t\tcontract_metadata[contract_id.current()] = metadata;\n\t\tcontract_key[contract_id.current()] = public_key;\n\n\t\treturn contract_id.current();\n\t}\n\n\tfunction verifySignature(bytes calldata signature, uint256 id, address caller) external returns(bool) {\n\t\t\tif (msg.sender != address(this)) {\n\t\t\t\trequire(caller == msg.sender, \"bad origin, access denied\");\n\t\t\t}\n\n\t\t\taddress pub_address = this.getSigner(this.createSignatureHash(caller, id), signature);\n\t\t\trequire(pub_address == contract_key[id], \"signature verification failed\");\n\n\t\t\tpoa_id.increment();\n\t\t\tuint256 new_poa_id = uint256(keccak256(abi.encodePacked(\n\t\t\t\tcaller, poa_id.current(), block.timestamp\n\t\t\t)));\n\n\t\t\t_mint(caller, new_poa_id);\n\t\t\t_setTokenURI(new_poa_id, this.bytes32ToString(keccak256(abi.encode(id))));\n\n\t\t\treturn true;\n\t}\n\t\n\tfunction createSignatureHash(address signer, uint256 id) external pure returns(bytes32) {\n\t\treturn keccak256(abi.encodePacked(signer, id));\n\t}\n\n\tfunction bytes32ToString(bytes32 _bytes32) public pure returns (string memory) {\n\t\t\tuint8 i = 0;\n\t\t\twhile(i < 32 && _bytes32[i] != 0) {\n\t\t\t\t\ti++;\n\t\t\t}\n\t\t\tbytes memory bytesArray = new bytes(i);\n\t\t\tfor (i = 0; i < 32 && _bytes32[i] != 0; i++) {\n\t\t\t\t\tbytesArray[i] = _bytes32[i];\n\t\t\t}\n\t\t\treturn string(bytesArray);\n\t}\n\n\tfunction getSigner(bytes32 _hash, bytes memory _signature) public pure returns (address){\n\t\tbytes32 r;\n\t\tbytes32 s;\n\t\tuint8 v;\n\n\t\tif (_signature.length != 65) {\n\t\t\treturn address(0);\n\t\t}\n\n\t\tassembly {\n\t\t\tr := mload(add(_signature, 32))\n\t\t\ts := mload(add(_signature, 64))\n\t\t\tv := byte(0, mload(add(_signature, 96)))\n\t\t}\n\t\tif (v < 27) {\n\t\t\tv += 27;\n\t\t}\n\t\tif (v != 27 && v != 28) {\n\t\t\treturn address(0);\n\t\t} else {\n\t\t\treturn ecrecover(keccak256(\n\t\t\t\tabi.encodePacked(\"\\x19Ethereum Signed Message:\\n32\", _hash)\n\t\t\t), v, r, s);\n\t\t}\n  }\n}\n",
  "sourcePath": "/Users/songzhou/Desktop/old desktop/DEEEsktop/skyepass-repo/rdt/contracts/KiwiSign.sol",
  "compiler": {
    "name": "solc",
    "version": "0.8.0+commit.c7dfd78e.Emscripten.clang"
  },
  "schemaVersion": "3.2.3",
  "updatedAt": "2022-01-11T09:32:38.656Z",
  "networkType": "ethereum",
  "devdoc": {
    "kind": "dev",
    "methods": {
      "approve(address,uint256)": {
        "details": "See {IERC721-approve}."
      },
      "balanceOf(address)": {
        "details": "See {IERC721-balanceOf}."
      },
      "getApproved(uint256)": {
        "details": "See {IERC721-getApproved}."
      },
      "isApprovedForAll(address,address)": {
        "details": "See {IERC721-isApprovedForAll}."
      },
      "name()": {
        "details": "See {IERC721Metadata-name}."
      },
      "ownerOf(uint256)": {
        "details": "See {IERC721-ownerOf}."
      },
      "safeTransferFrom(address,address,uint256)": {
        "details": "See {IERC721-safeTransferFrom}."
      },
      "safeTransferFrom(address,address,uint256,bytes)": {
        "details": "See {IERC721-safeTransferFrom}."
      },
      "setApprovalForAll(address,bool)": {
        "details": "See {IERC721-setApprovalForAll}."
      },
      "supportsInterface(bytes4)": {
        "details": "See {IERC165-supportsInterface}."
      },
      "symbol()": {
        "details": "See {IERC721Metadata-symbol}."
      },
      "tokenURI(uint256)": {
        "details": "See {IERC721Metadata-tokenURI}."
      },
      "transferFrom(address,address,uint256)": {
        "details": "See {IERC721-transferFrom}."
      }
    },
    "version": 1
  },
  "userdoc": {
    "kind": "user",
    "methods": {},
    "version": 1
  }
}